:020000040800F2
:1000000000280020411E00089D1C0008A51C0008B7
:10001000AD1C0008B51C0008BD1C00080000000055
:10002000000000000000000000000000C51C0008E7
:10003000D11C000800000000DD1C0008E91C0008BD
:10004000891E0008891E0008891E0008891E0008F4
:10005000891E0008891E0008891E0008891E0008E4
:10006000891E0008891E0008891E0008891E0008D4
:10007000891E0008891E0008891E0008891E0008C4
:10008000891E0008891E0008891E0008891E0008B4
:10009000891E0008891E0008891E0008891E0008A4
:1000A000891E0008891E0008891E0008891E000894
:1000B000891E0008891E000800000000891E000833
:1000C000891E00080000000000000000891E0008D2
:1000D00000000000891E0008891E000800000000C2
:1000E000891E0008891E0008891E00080000000003
:1000F0000000000000000000000000000000000000
:0C01000000000000000000005FF808F1A3
:1001100010B5054C237833B9044B13B10448AFF341
:1001200000800123237010BD680000200000000043
:10013000A457000808B5034B1BB103490348AFF3AC
:10014000008008BD000000006C000020A4570008DB
:1001500080F0004002E000BF81F0004142001FBF7C
:100160005FEA410392EA030F7FEA226C7FEA236C85
:100170006AD04FEA1262D2EB1363C1BFD21841407A
:1001800048404140B8BF5B42192B88BF704710F010
:10019000004F40F4000020F07F4018BF404211F0B3
:1001A000004F41F4000121F07F4118BF494292EA1B
:1001B000030F3FD0A2F1010241FA03FC10EB0C0047
:1001C000C3F1200301FA03F100F0004302D54942D4
:1001D00060EB4000B0F5000F13D3B0F1807F06D381
:1001E00040084FEA310102F10102FE2A51D2B1F179
:1001F000004F40EBC25008BF20F0010040EA03006E
:100200007047490040EB0000013A28BFB0F5000FED
:10021000EDD2B0FA80FCACF1080CB2EB0C0200FAA3
:100220000CF0AABF00EBC25052421843BCBFD040F2
:100230001843704792F0000F81F4000106BF80F46C
:1002400000000132013BB5E74FEA41037FEA226C2F
:1002500018BF7FEA236C21D092EA030F04D092F0FA
:10026000000F08BF0846704790EA010F1CBF00202E
:10027000704712F07F4F04D1400028BF40F000408B
:10028000704712F100723CBF00F50000704700F0AB
:10029000004343F0FE4040F4000070477FEA2262D2
:1002A00016BF08467FEA23630146420206BF5FEAA3
:1002B000412390EA010F40F4800070474FF00003A3
:1002C00004E000BF10F0004348BF40425FEA000C6A
:1002D00008BF704743F0964301464FF000001CE012
:1002E00050EA010208BF70474FF000030AE000BF68
:1002F00050EA010208BF704711F0004302D54042A6
:1003000061EB41015FEA010C02BF84460146002017
:1003100043F0B64308BFA3F18053A3F50003BCFA32
:100320008CF2083AA3EBC25310DB01FA02FC6344DF
:1003300000FA02FCC2F12002BCF1004F20FA02F2E6
:1003400043EB020008BF20F00100704702F12002D9
:1003500001FA02FCC2F1200250EA4C0021FA02F23A
:1003600043EB020008BF20EADC7070474FF0FF0C3F
:100370001CEAD0521EBF1CEAD15392EA0C0F93EA3A
:100380000C0F6FD01A4480EA010C400218BF5FEADC
:1003900041211ED04FF0006343EA501043EA51114F
:1003A000A0FB01310CF00040B1F5000F3EBF490049
:1003B00041EAD3715B0040EA010062F17F02FD2A4D
:1003C0001DD8B3F1004F40EBC25008BF20F0010030
:1003D000704790F0000F0CF0004C08BF49024CEA47
:1003E000502040EA51207F3AC2BFD2F1FF0340EAD9
:1003F000C250704740F400004FF00003013A5DDC4A
:1004000012F1190FDCBF00F000407047C2F100028A
:10041000410021FA02F1C2F1200200FA02FC5FEA77
:10042000310040F1000053EA4C0308BF20EADC70C1
:10043000704792F0000F00F0004C02BF400010F433
:10044000000F013AF9D040EA0C0093F0000F01F0E0
:10045000004C02BF490011F4000F013BF9D041EA02
:100460000C018FE70CEAD15392EA0C0F18BF93EA04
:100470000C0F0AD030F0004C18BF31F0004CD8D12E
:1004800080EA010000F00040704790F0000F17BFB5
:1004900090F0004F084691F0000F91F0004F14D0FB
:1004A00092EA0C0F01D142020FD193EA0C0F03D153
:1004B0004B0218BF084608D180EA010000F0004056
:1004C00040F0FE4040F40000704740F0FE4040F431
:1004D000400070474FF0FF0C1CEAD0521EBF1CEAD0
:1004E000D15392EA0C0F93EA0C0F69D0A2EB0302EE
:1004F00080EA010C49024FEA402037D04FF0805388
:1005000043EA111143EA10130CF000408B4238BF4C
:100510005B0042F17D024FF4000C8B4224BF5B1A5A
:1005200040EA0C00B3EB510F24BFA3EB510340EAA8
:100530005C00B3EB910F24BFA3EB910340EA9C0056
:10054000B3EBD10F24BFA3EBD10340EADC001B01C6
:1005500018BF5FEA1C1CE0D1FD2A3FF650AF8B426A
:1005600040EBC25008BF20F0010070470CF0004C77
:100570004CEA50207F32C2BFD2F1FF0340EAC250A2
:10058000704740F400004FF00003013A37E792F063
:10059000000F00F0004C02BF400010F4000F013AC1
:1005A000F9D040EA0C0093F0000F01F0004C02BFBC
:1005B000490011F4000F013BF9D041EA0C0195E725
:1005C0000CEAD15392EA0C0F08D142027FF47DAFBE
:1005D00093EA0C0F7FF470AF084676E793EA0C0FAE
:1005E00004D14B023FF44CAF08466EE730F0004CAC
:1005F00018BF31F0004CCAD130F000427FF45CAF3C
:1006000031F000437FF43CAF5FE700BF4FF0FF3CA9
:1006100006E000BF4FF0010C02E000BF4FF0010CFC
:100620004DF804CD4FEA40024FEA41037FEA226CC5
:1006300018BF7FEA236C11D001B052EA530C18BFE7
:1006400090EA010F58BFB2EB030088BFC81738BF4C
:100650006FEAE17018BF40F0010070477FEA226C3A
:1006600002D15FEA402C05D17FEA236CE4D15FEA36
:10067000412CE1D05DF8040B704700BF844608466A
:100680006146FFE70FB5FFF7C9FF002848BF10F12B
:10069000000F0FBD4DF808EDFFF7F4FF0CBF012070
:1006A00000205DF808FB00BF4DF808EDFFF7EAFFFA
:1006B00034BF012000205DF808FB00BF4DF808EDB5
:1006C000FFF7E0FF94BF012000205DF808FB00BFAA
:1006D0004DF808EDFFF7D2FF94BF012000205DF830
:1006E00008FB00BF4DF808EDFFF7C8FF34BF01203D
:1006F00000205DF808FB00BF53B94AB9002908BFC4
:1007000000281CBF4FF0FF314FF0FF3000F08CB9D4
:10071000ADF1080C6DE904CE00F006F8DDF804E058
:10072000DDE9022304B070472DE9F047089D8E46AD
:1007300004468846002B4AD18A42174662D9B2FA4B
:1007400082F64EB1C6F1200301FA06F820FA03F34F
:10075000B74043EA0808B4404FEA174EB8FBFEF131
:100760001FFA87FC0EFB118801FB0CF2230C43EAF5
:1007700008439A4209D9FB1801F1FF3080F0EB8061
:100780009A4240F2E88002393B449A1AB2FBFEF0EA
:100790000EFB102200FB0CFCA3B243EA02439C4573
:1007A00009D9FB1800F1FF3280F0D7809C4540F258
:1007B000D4803B44023840EA01400021A3EB0C0303
:1007C0001DB10022F340C5E90032BDE8F0878B423D
:1007D00005D90DB1C5E9000100210846F5E7B3FAD6
:1007E00083F1002946D1734502D3824200F2088189
:1007F000841A6EEB030201209046002DE5D0C5E976
:100800000048E2E7002A00F09180B2FA82F6002E5A
:1008100040F0A5808A1A0121030C4FEA174E80B2DE
:10082000BCB2B2FBFEFC0EFB1C2243EA024304FBFB
:100830000CF29A4207D9FB180CF1FF3802D29A4207
:1008400000F2E380C4469B1AB3FBFEF20EFB1233A8
:1008500002FB04F440EA03439C4207D9FB1802F16F
:10086000FF3002D29C4200F2CD8002461B1B42EABE
:100870000C40A5E7C1F120068B4022FA06F71F4382
:100880002EFA06FA4FEA1749BAFBF9F80EFA01FEFA
:1008900020FA06F309FB18AA1FFA87FC43EA0E03A5
:1008A00000FA01FE08FB0CF01C0C44EA0A44A042CA
:1008B00002FA01F20AD93C1908F1FF3A80F09E8051
:1008C000A04240F29B80A8F102083C44241A98B24E
:1008D000B4FBF9F309FB134403FB0CFC40EA0444AA
:1008E000A44509D93C1903F1FF3080F08580A44567
:1008F00040F28280023B3C4443EA0840A4EB0C04F3
:10090000A0FB028C64454346E14664D361D05DB1EF
:10091000BEEB030264EB090404FA06F622FA01F3C3
:100920001E43CC40C5E9006400214EE7B1FBF2FC58
:10093000010C41EA0E4180B240EA01423B46B1FB64
:10094000F7F138463C46B846BE462026A2EB0802E0
:1009500041EA0C4165E7014617E710462BE7C6F16F
:1009600020012EFA01FCB7400EFA06FE20FA01F132
:1009700041EA0E014FEA174EBCFBFEF8BCB20EFB7B
:1009800018CC08FB04F90A0C42EA0C42B04091452D
:100990004FEA104380B23ED9BA1808F1FF3C01D2A9
:1009A00091451FD8A2EB0902B2FBFEF909FB04F83E
:1009B0000EFB192A8AB242EA0A42424529D2BA18E3
:1009C00009F1FF31C2D24245C0D2A9F102013A4435
:1009D000BCE7C6459BD2B8EB02036CEB070C0138B1
:1009E000E14694E7A7EB09094A44B2FBFEF9A8F1F6
:1009F000020C09FB04F8DBE703467DE7D04665E718
:100A00000846FAE63B44023A30E7ACF1020C3B44BC
:100A100019E749469AE7A2EB0902B2FBFEF9C44680
:100A200009FB04F8C4E700BF704700BF80B584B07D
:100A300000AF78600B46FB707B681B68FA78114644
:100A4000184600F0E7FA7B681B68184600F002FBC6
:100A50000346FB737B681B680121184600F09FFA70
:100A6000FB7B18461037BD4680BD80B582B000AF15
:100A700078600B46FB701346BB707B681B680021D7
:100A8000184600F08CFA7B681A68FB7863F07F03E5
:100A9000DBB21946104600F0BDFA7B681B68BA78D5
:100AA0001146184600F0B6FA7B681B68012118460B
:100AB00000F075FA00BF0837BD4680BD80B586B02E
:100AC00000AFF8607A601A460B46FB721346BB72A1
:100AD000BB7A002B29D0FB681B680021184600F068
:100AE0005EFAFB681A68FB7A63F07F03DBB2194693
:100AF000104600F08FFA0023FB750BE0FB681868C6
:100B0000FB7D7A6813441B78194600F083FAFB7D5D
:100B10000133FB75FA7DBB7A9A42EFD3FB681B6801
:100B20000121184600F03BFA00E000BF1837BD462F
:100B300080BD000080B586B000AF7860786800F0B6
:100B40000DF90F2000F0ACFA786800F017F97B6817
:100B5000D3E902234FF000004FF00001D90441EA2D
:100B60005231D0046F4A4FF00003FFF7C5FD024633
:100B70000B46C7E90423D7E904014FF000024FF008
:100B80000003020C42EA01420B0CD3B23B73D7E9DB
:100B900004014FF000024FF00003020A42EA016232
:100BA0000B0AD3B27B733B7CBB7307F10C020323AC
:100BB00006217868FFF782FF122239217868FFF753
:100BC00054FF7B681B7C1A46574B9B5C1A460921D5
:100BD0007868FFF74AFF0B220B217868FFF745FF83
:100BE00023220C217868FFF740FF7B685B7C1A4664
:100BF0004E4B9B5C062B47D17B689B7C1A464C4B2B
:100C00009B5C1B01DAB27B68DB7C1946494B5B5C61
:100C10005B00DBB21344DBB20133DBB21A461D21A9
:100C20007868FFF722FF7B685B7C1A463F4B9B5C32
:100C30001B01DAB27B681B7D19463F4B5B5C9B0056
:100C4000DBB21344DBB20333DBB21A461E217868F1
:100C5000FFF70BFF31217868FFF7E8FE0346FB73CF
:100C6000FB7B23F00703FB73FB7B43F00503FB7364
:100C7000FB7B1A4631217868FFF7F7FE0C223721FB
:100C80007868FFF7F2FE29E07B689B7C1A46284BC8
:100C90009B5C1B01DAB27B68DB7C1946254B5B5CF5
:100CA0005B00DBB21344DBB21A461D217868FFF704
:100CB000DCFE7B685B7C1A461C4B9B5C1B01DAB23A
:100CC0007B681B7D19461C4B5B5C9B00DBB21344AD
:100CD000DBB21A461E217868FFF7C7FE04222621E0
:100CE0007868FFF7C2FE08221F217868FFF7BDFE73
:100CF000002220217868FFF7B8FE082221217868B9
:100D0000FFF7B3FE012241217868FFF7AEFE7B6852
:100D1000002283F81721786800F010F800BF183718
:100D2000BD4680BD0048E801B8590008BC5900081C
:100D3000C4590008D0590008D459000880B582B0C1
:100D400000AF7860092201217868FFF78EFE7B688A
:100D500001229A7500BF0837BD4680BD80B582B0BC
:100D600000AF7860082201217868FFF77EFE7B687B
:100D700000229A7500BF0837BD4680BD80B582B09D
:100D800000AF7860882201217868FFF76EFE00BF0F
:100D90000837BD4680BD80B582B000AF7860FF22C5
:100DA00012217868FFF761FE00BF0837BD4680BD9D
:100DB00080B586B000AFF8600B467A60FB72FB68C6
:100DC000FA7A5A75F868FFF7B5FE87224D21F86860
:100DD000FFF74BFE00222421F868FFF746FE412270
:100DE0004021F868FFF741FEF868FFF7D4FFF722CB
:100DF0001121F868FFF739FEFB7A1A462221F868BC
:100E0000FFF733FE0E21F868FFF710FE0346FB756F
:100E1000FB7D1A460D21F868FFF727FE2221F868AE
:100E2000FFF704FE0346BB75BA7DFB7A9A4204D1F4
:100E3000FB6802229A7501230EE07B68013B7B6010
:100E40007B68002BEAD1FB681B68184600F0BEF8EF
:100E5000F868FFF76FFE002318461837BD4680BDBF
:100E600080B584B000AFF860B9603B601346FB7199
:100E7000FB79BA680021F868FFF720FE8B22012178
:100E8000F868FFF7F2FDFB681B68184600F013F9DD
:100E90000346002B0BD01221F868FFF7C7FDF86856
:100EA000FFF779FFF868FFF749FF012313E03B687C
:100EB000013B3B603B68002B09D1FB681B6818466F
:100EC00000F084F8F868FFF735FE002303E0012006
:100ED00000F0E6F8D7E718461037BD4680BD80B56C
:100EE00084B000AFF860C7E90023FB681B681846B0
:100EF00000F040F8F968D7E90023C1E90223FB6854
:100F00003A7E1A74FB683A7F5A74FB6897F820207F
:100F10009A74FB6897F82420DA74FB6897F8282005
:100F20001A75FB6897F82C205A75F868FFF702FECF
:100F300000BF1037BD4680BD80B584B000AFF860FB
:100F4000B9603B601346FB71FB793A681946F86853
:100F5000FFF72EFF0346002B07D0FA793B68B968EC
:100F6000F868FFF77DFF034600E0002318461037BE
:100F7000BD4680BD80B582B000AF78600121786841
:100F800000F00DF87B6858687B681B689BB20122F3
:100F9000194601F078FA00BF0837BD4680BD80B51C
:100FA00082B000AF786039607B6858697B681B69E4
:100FB00099B23B68012B0CBF01230023DBB21A4618
:100FC00001F061FA00BF0837BD4680BD80B582B030
:100FD00000AF786001217868FFF7E1FF7B6858680F
:100FE0007B681B689BB20022194601F04CFA012075
:100FF00000F056F87B6858687B681B689BB201223A
:10100000194601F040FA642000F04AF800BF0837A2
:10101000BD4680BD80B582B000AF78600B46FB70E6
:1010200000217868FFF7BBFF7B689869F91C4FF4D3
:101030007A73012203F06CF800BF7B689B69184645
:1010400003F053FB0346012BF7D100BF00BF083765
:10105000BD4680BD80B586B002AF78600023FB73CB
:101060000023BB7300217868FFF799FF7B689869BC
:1010700007F10E0207F10F014FF47A730093012379
:1010800003F08AF900BF7B689B69184603F02DFBCB
:101090000346012BF7D1BB7B18461037BD4680BDF8
:1010A00080B582B000AF7860786800F051FF00BF73
:1010B0000837BD4680BD80B582B000AF78607B68E0
:1010C000DA687B689B689BB21946104601F0C4F948
:1010D0000346012B0CBF01230023DBB2184608375F
:1010E000BD4680BD80B588B000AF07F11003002277
:1010F0001A605A609A60DA603E4B9B693D4A43F041
:10110000100393613B4B9B6903F01003FB60FB688A
:10111000384B9B69374A43F020039361354B9B69F9
:1011200003F02003BB60BB68324B9B69314A43F03C
:10113000040393612F4B9B6903F004037B607B687E
:101140002C4B9B692B4A43F008039361294B9B6905
:1011500003F008033B603B6800224FF4005126482F
:1011600001F091F901221021244801F08CF90022AC
:1011700047F20801224801F086F94FF400533B6121
:1011800001237B610023BB610223FB6107F1100394
:101190001946194800F0E4FF10233B6101237B61ED
:1011A0000023BB610223FB6107F1100319461348BA
:1011B00000F0D6FF02233B6100237B610023BB616B
:1011C00007F1100319460E4800F0CAFF47F2080362
:1011D0003B6101237B610023BB610223FB6107F1BB
:1011E00010031946064800F0BBFF00BF2037BD467C
:1011F00080BD00BF00100240001001400008014007
:10120000000C014080B500AF124B134A1A60114B1D
:10121000124A5A600F4B00229A600E4B0022DA608D
:101220000C4B4FF480421A610A4B00225A61094B61
:1012300000229A61074B0022DA61064B00221A62F3
:10124000044801F051F90346002B01D000F05EFC88
:1012500000BF80BD8400002000540040A086010033
:1012600080B588B000AF786007F1100300221A60E3
:101270005A609A60DA607B681B68164A934225D1EF
:10128000154B9B69144A43F008039361124B9B6909
:1012900003F00803FB60FB68C0233B6112237B6102
:1012A0000023BB610323FB6107F1100319460B48C0
:1012B00000F056FF084BDB69074A43F40013D36183
:1012C000054BDB6903F40013BB60BB6800BF20372C
:1012D000BD4680BD0054004000100240000C01409B
:1012E00080B483B000AF78604FF06043D3F8803EA5
:1012F00003F00103002B13D04FF06043D3F8003EFE
:1013000003F00103002B0BD000E000BF4FF060435F
:101310001B68002BF9D04FF060437A68D2B21A7084
:101320007B6818460C37BD4680BC704780B582B0DC
:1013300000AF78607B681846FFF7D2FF7B681846DD
:101340000837BD4680BD000080B586B004AF0346B7
:101350000A46FB711346BB71FB799AB24FF0FF331B
:10136000029301230193BB1D00930123D021044864
:1013700001F0FEF9034618460837BD4680BD00BFA0
:101380008400002080B586B004AF03463960FB714D
:10139000FB799AB24FF0FF330293012301933B682C
:1013A00000930123D021044801F0DCFA03461846DB
:1013B0000837BD4680BD00BF8400002080B586B0E0
:1013C00004AF03463960FB711346BB80FB799AB2C8
:1013D0004FF0FF330293BB8801933B6800930123D6
:1013E000D021044801F0BEFA034618460837BD462E
:1013F00080BD00BF8400002080B582B000AFBB1D5F
:1014000019467520FFF7BEFF0346FB71FB79002BE1
:1014100001D0012334E0BB79682B01D001232FE0F8
:1014200000216B20FFF790FF0346FB71FB79002B37
:1014300001D0012324E00A2000F08AFD07211920B1
:10144000FFF782FF0346FB71FB79002B01D00123DC
:1014500016E000211C20FFF777FF0346FB71FB79A4
:10146000002B01D001230BE000211B20FFF76CFFB4
:101470000346FB71FB79002B01D0012300E0002320
:1014800018460837BD4680BD80B584B000AF78608F
:1014900007F10803062219463B20FFF78FFF03469A
:1014A000FB73FB7B002B01D001231EE03B7A1BB2B8
:1014B0001B021AB27B7A1BB213431AB27B681A80E2
:1014C000BB7A1BB21B021AB2FB7A1BB213431AB2CD
:1014D0007B685A803B7B1BB21B021AB27B7B1BB220
:1014E00013431AB27B689A80002318461037BD4612
:1014F00080BD80B584B000AF78604FF08D43FB6055
:101500007B68B3F900301846FEF7DCFE0346F96845
:101510001846FEF7DFFF03461A467B689A607B6831
:10152000B3F902301846FEF7CDFE0346F9681846B7
:10153000FEF7D0FF03461A467B68DA607B68B3F992
:1015400004301846FEF7BEFE0346F9681846FEF75B
:10155000C1FF03461A467B681A6100BF1037BD46BB
:1015600080BD000080B500AF00224FF480510848D4
:1015700000F089FF00224FF40051054800F083FF7E
:1015800000224FF48041024800F07DFF00BF80BD83
:10159000000C014080B584B000AF78607B68042BFC
:1015A00078D801A252F823F0BD150008D315000821
:1015B000F515000815160008551600084FF40051DF
:1015C000364800F078FF4FF4FA7000F0C1FC00BF1D
:1015D000F4E700224FF40051304800F054FF4FF47C
:1015E000FA7000F0B5FC01224FF400512B4800F0D6
:1015F0004AFF4FE000224FF40051284800F043FF1B
:101600001E2000F0A5FC01224FF40051234800F0F9
:101610003AFF3FE00023FB6012E04FF400511F4807
:1016200000F049FF502000F093FC4FF400511B489C
:1016300000F041FF502000F08BFCFB680133FB60A1
:10164000FB68022BE9DD01224FF40051134800F042
:101650001AFF1FE00023BB6012E04FF400510F4857
:1016600000F029FF782000F073FC4FF400510B4884
:1016700000F021FF782000F06BFCBB680133BB60F9
:10168000BB68012BE9DD01224FF40051034800F053
:10169000FAFE00BF00BF1037BD4680BD00100140FC
:1016A00080B58EB006AF00F0F1FB00F0E9F9FFF76E
:1016B00019FD00F041FAFFF7A5FDA54803F006FA71
:1016C00001224FF40051A34800F0DDFEFFF74AFF6E
:1016D000A14803F0FBF964230322D0219F4801F0C5
:1016E000B5FB0346002B08D09D4803F0EFF99D4B56
:1016F00001221A700020FFF74DFF9B4803F0E6F926
:101700000CE0984B02221A70984803F0DFF904208D
:10171000FFF740FF4FF4FA6000F01AFCFFF76CFE91
:101720000346002B04D08F4B1B78DBB2002BE8D094
:101730008C4B1B78DBB2002B08D18A4B00221A702D
:101740008B4803F0C3F90120FFF724FF854B1B787A
:10175000DBB2002B46D1874803F0B8F9864B874AA5
:101760009A61854B864A5A61834B10221A61824BDB
:10177000844A5A60804B08221A60834B7E4A1A6062
:101780007D48FFF723FC40230593002304930023A7
:1017900003930723029301230193012300936AA378
:1017A000D3E900237848FFF79AFB42217648FFF7F8
:1017B0003DF90346FB77FB7F122B08D1FB7F1946CF
:1017C000724803F01BF90120FFF7E4FE0AE0FB7FFB
:1017D00019466F4803F012F9624B03221A70002079
:1017E000FFF7D8FE5F4B1B78DBB2002BFAD16948BC
:1017F000FFF74AFE0346002B40F029816548FFF7BA
:1018000078FEFFF7AFFE644B00221A70614B9B68B5
:10181000BB61604BDB687B615E4B1B693B61BB69F5
:1018200023F00043FB607B6923F00043BB603B690E
:1018300023F000437B6059497868FEF753FF034665
:10184000002B11D05649F868FEF72EFF0346002BF7
:101850000AD05349B868FEF727FF0346002B03D090
:101860004D4B00221A70D2E04E497869FEF73AFFDC
:101870000346002B16D04B49B869FEF733FF0346E9
:10188000002B0FD001224FF480513E4800F0FBFDA9
:1018900001224FF480413B4800F0F5FD3E4B05220C
:1018A0001A70B4E03F497869FEF71CFF0346002B2D
:1018B00016D03D49B869FEF7F7FE0346002B0FD05E
:1018C00001224FF480512F4800F0DDFD01224FF43A
:1018D00080412C4800F0D7FD2F4B06221A7096E06D
:1018E0003049B869FEF7FEFE0346002B11D04FF0D9
:1018F0007D51B868FEF7D8FE0346002B09D00122BF
:101900004FF480511F4800F0BEFD234B01221A7096
:101910007DE02549B869FEF7C7FE0346002B45D098
:101920004FF07D51B868FEF7BFFE0346002B3DD057
:1019300001224FF48051134800F0A5FD164B0222FE
:101940001A7064E0AFF30080400ECF190000000071
:10195000BC57000800100140FC570008840000201C
:1019600014580008200200203C5800086458000861
:101970008C580008B0580008F00100202802002010
:1019800000080140000C0140D8000020D058000899
:10199000005900080C020020210200209A99593FAA
:1019A0009A99993E6666E63E6666E6BE2C49786977
:1019B000FEF798FE0346002B11D04FF07D51F868DA
:1019C000FEF772FE0346002B09D001224FF480413E
:1019D000244800F058FD244B03221A7017E02349D5
:1019E0007869FEF761FE0346002B10D04FF07D5161
:1019F000F868FEF759FE0346002B08D001224FF489
:101A00000051184800F03FFD174B04221A70164B86
:101A10001B781946164802F0F1FF0220FFF7BAFDC5
:101A2000C823012210491348FFF786FA0346124AD9
:101A30001360114B1B68012B0ED00F4B1B6819460E
:101A40000E4802F0DBFF0320FFF7A4FD04E0FFF7E0
:101A500089FD642000F07CFAC82000F079FAC1E624
:101A60006666E63E000C0140210200206666E6BE86
:101A700034590008D80000202402002064590008CE
:101A800080B590B000AF07F1180328220021184656
:101A900003F0FCF83B1D00221A605A609A60DA607D
:101AA0001A610123BB614FF48033FB6100233B6269
:101AB0000123BB6202237B634FF48033BB634FF48B
:101AC000E013FB6307F11803184601F0A1FE03467B
:101AD000002B01D000F01AF80F237B600223BB60BB
:101AE0000023FB604FF480633B6100237B613B1D5F
:101AF0000221184602F00EF90346002B01D000F037
:101B000005F800BF4037BD4680BD000080B500AF7E
:101B1000074802F0DBFF72B600BF4FF400510548E2
:101B200000F0C9FC322000F013FA00BFF5E700BF57
:101B3000905900080010014080B500AF174B184ABB
:101B40001A60164B4FF482725A60144B00229A604E
:101B5000124B0022DA60114B00221A610F4B002257
:101B60005A610E4B4FF400729A610C4B1822DA61E5
:101B70000A4B00221A62094B00225A62074B0022CC
:101B80009A62064B0A22DA62044802F03DFA0346E2
:101B9000002B01D0FFF7BAFF00BF80BD2802002054
:101BA0000030014080B588B000AF786007F11003C5
:101BB00000221A605A609A60DA607B681B681B4AD0
:101BC00093422FD11A4B9B69194A43F48053936176
:101BD000174B9B6903F48053FB60FB68144B9B69B4
:101BE000134A43F004039361114B9B6903F0040310
:101BF000BB60BB68A0233B6102237B610323FB61C5
:101C000007F1100319460B4800F0AAFA40233B6184
:101C100000237B610023BB6107F1100319460548CF
:101C200000F09EFA00BF2037BD4680BD0030014065
:101C3000001002400008014080B485B000AF154B91
:101C40009B69144A43F001039361124B9B6903F0B3
:101C50000103BB60BB680F4BDB690E4A43F0805346
:101C6000D3610C4BDB6903F080537B607B680A4BCC
:101C70005B68FB60FB6823F0E063FB60FB6843F09C
:101C80008063FB60044AFB68536000BF1437BD46A5
:101C900080BC7047001002400000014080B400AFDB
:101CA00000BFFDE780B400AF00BFFDE780B400AF28
:101CB00000BFFDE780B400AF00BFFDE780B400AF18
:101CC00000BFFDE780B400AF00BFBD4680BC7047D9
:101CD00080B400AF00BFBD4680BC704780B400AF89
:101CE00000BFBD4680BC704780B500AF00F014F95E
:101CF00000BF80BD80B586B000AFF860B9607A6083
:101D000000237B610AE0AFF300800146BB685A1CE8
:101D1000BA60CAB21A707B6901337B617A697B68E9
:101D20009A42F0DB7B6818461837BD4680BD80B507
:101D300086B000AFF860B9607A6000237B6109E08B
:101D4000BB685A1CBA601B781846FFF7EFFA7B692C
:101D500001337B617A697B689A42F1DB7B681846C4
:101D60001837BD4680BD80B483B000AF78604FF0B7
:101D7000FF3318460C37BD4680BC704780B483B033
:101D800000AF786039603B684FF400525A6000231E
:101D900018460C37BD4680BC704780B483B000AF96
:101DA0007860012318460C37BD4680BC704780B46C
:101DB00085B000AFF860B9607A6000231846143728
:101DC000BD4680BC7047000080B586B000AF78602B
:101DD000144A154BD31A7B617B693B61134B1B681B
:101DE000002B02D1114B124A1A60104B1A687B6803
:101DF00013443A699A4207D202F096FF03460C2236
:101E00001A604FF0FF3309E0084B1B68FB60074B7B
:101E10001A687B681344054A1360FB681846183734
:101E2000BD4680BD00280020000400008002002084
:101E3000D803002080B400AF00BFBD4680BC70470F
:101E4000FFF7F8FF0B480C490C4A002302E0D45876
:101E5000C4500433C4188C42F9D3094A094C0023F6
:101E600001E013600432A242FBD302F063FFFFF7EC
:101E700017FC70470000002068000020485A000846
:101E800068000020D4030020FEE7000080B500AF0A
:101E9000084B1B68074A43F010031360032000F04F
:101EA0002BF90F2000F008F8FFF7C6FE00231846B4
:101EB00080BD00BF0020024080B582B000AF7860D6
:101EC000124B1A68124B1B7819464FF47A73B3FB06
:101ED000F1F3B2FBF3F3184600F035F90346002B9B
:101EE00001D001230EE07B680F2B0AD8002279680D
:101EF0004FF0FF3000F00BF9064A7B6813600023B7
:101F000000E0012318460837BD4680BD00000020D0
:101F1000080000200400002080B400AF054B1B78AF
:101F20001A46054B1B681344034A136000BFBD46A5
:101F300080BC7047080000208402002080B400AFFD
:101F4000024B1B681846BD4680BC704784020020C7
:101F500080B584B000AF7860FFF7F0FFB8607B68B1
:101F6000FB60FB68B3F1FF3F05D00A4B1B781A46B4
:101F7000FB681344FB6000BFFFF7E0FF0246BB684D
:101F8000D31AFA689A42F7D800BF00BF1037BD468F
:101F900080BD00BF0800002080B485B000AF78602D
:101FA0007B6803F00703FB600C4BDB68BB60BA681F
:101FB0004FF6FF031340BB60FB681A02BB68134374
:101FC00043F0BF6343F40033BB60044ABB68D36093
:101FD00000BF1437BD4680BC704700BF00ED00E075
:101FE00080B400AF044BDB681B0A03F007031846FC
:101FF000BD4680BC704700BF00ED00E080B483B0F8
:1020000000AF03463960FB7197F90730002B0ADBFC
:102010003B68DAB20C4997F907301201D2B20B448F
:1020200083F800230AE03B68DAB20849FB7903F041
:102030000F03043B1201D2B20B441A7600BF0C37D7
:10204000BD4680BC704700BF00E100E000ED00E04D
:1020500080B489B000AFF860B9607A60FB6803F0C3
:102060000703FB61FB69C3F10703042B28BF0423AB
:10207000BB61FB690433062B02D9FB69033B00E01B
:1020800000237B614FF0FF32BB6902FA03F3DA43AE
:10209000BB681A407B699A404FF0FF317B6901FAB7
:1020A00003F3D9437B680B40134318462437BD46DE
:1020B00080BC704780B582B000AF78607B68013B20
:1020C000B3F1807F01D301230FE00A4A7B68013B13
:1020D00053600F214FF0FF30FFF790FF054B0022B8
:1020E0009A60044B07221A60002318460837BD4641
:1020F00080BD00BF10E000E080B582B000AF786026
:102100007868FFF749FF00BF0837BD4680BD80B53E
:1021100086B000AF0346B9607A60FB7300237B6131
:10212000FFF75EFF78617A68B9687869FFF790FF1A
:10213000024697F90F3011461846FFF75FFF00BFC0
:102140001837BD4680BD80B582B000AF7860786832
:10215000FFF7B0FF034618460837BD4680BD0000B4
:1021600080B48BB000AF7860396000237B620023BD
:102170003B6261E101227B6A02FA03F3FB613B6887
:102180001B68FA691340BB61BA69FB699A4240F067
:1021900050813B685B68974A93425ED0954A934270
:1021A00075D8954A934258D0934A93426FD8934A30
:1021B000934252D0914A934269D8914A93424CD06B
:1021C0008F4A934263D88F4A934246D08D4A9342B6
:1021D0005DD8122B2AD8122B59D801A252F823F01D
:1021E0005B220008352200084722000889220008E7
:1021F0008F2200088F2200088F2200088F220008FB
:102200008F2200088F2200088F2200088F220008EA
:102210008F2200088F2200088F2200088F220008DA
:102220008F2200083D22000851220008764A93427E
:1022300013D02CE03B68DB683B6229E03B68DB683D
:1022400004333B6224E03B68DB6808333B621FE0F9
:102250003B68DB680C333B621AE03B689B68002BF1
:1022600002D104233B6213E03B689B68012B05D13C
:1022700008233B627B68FA691A6109E008233B6224
:102280007B68FA695A6103E000233B6200E000BF0B
:10229000BB69FF2B01D87B6801E07B6804337B615D
:1022A000BB69FF2B02D87B6A9B0002E07B6A083B7C
:1022B0009B003B617B691A680F213B6901FA03F3BC
:1022C000DB431A40396A3B6901FA03F31A437B691D
:1022D0001A603B685B6803F08053002B00F0A98014
:1022E0004A4B9B69494A43F001039361474B9B6901
:1022F00003F00103BB60BB68454A7B6A9B0802335D
:1023000052F82330FB607B6A03F003039B000F222B
:1023100002FA03F3DB43FA681340FB607B683D4A33
:1023200093420DD07B683C4A934207D07B683B4A7E
:10233000934201D1022304E0032302E0012300E0E1
:1023400000237A6A02F0030292009340FA68134372
:10235000FB602F497B6A9B080233FA6841F823200F
:102360003B685B6803F48013002B06D02C4B9A6803
:102370002B49BB6913438B6006E0294B9A68BB6904
:10238000DB43274913408B603B685B6803F4001311
:10239000002B06D0224BDA682149BB691343CB607E
:1023A00006E01F4BDA68BB69DB431D491340CB6075
:1023B0003B685B6803F40033002B06D0184B5A6867
:1023C0001749BB6913434B6006E0154B5A68BB695C
:1023D000DB43134913404B603B685B6803F4803375
:1023E000002B1FD00E4B1A680D49BB6913430B60BD
:1023F0001FE000BF0000321000003110000022106A
:102400000000211000001210000011100010024006
:102410000000014000080140000C01400010014094
:10242000000401400B4B1A68BB69DB4309491340A8
:102430000B607B6A01337B623B681A687B6A22FA15
:1024400003F3002B7FF496AE00BF00BF2C37BD46D0
:1024500080BC70470004014080B485B000AF786054
:102460000B467B807B689A687B881340002B02D0E8
:102470000123FB7301E00023FB73FB7B1846143739
:10248000BD4680BC704780B483B000AF78600B4617
:102490007B8013467B707B78002B03D07A887B6827
:1024A0001A6103E07B881A047B681A6100BF0C374D
:1024B000BD4680BC704780B485B000AF78600B46E5
:1024C0007B807B68DB68FB607A88FB6813401A04BA
:1024D000FB68D9437B880B401A437B681A6100BFB5
:1024E0001437BD4680BC704780B584B000AF7860BB
:1024F0007B68002B01D101232BE17B6893F83D30F1
:10250000DBB2002B06D17B68002283F83C20786880
:10251000FEF7A6FE7B68242283F83D207B681B68BB
:102520001A687B681B6822F001021A607B681B68CE
:102530001A687B681B6842F400421A607B681B685B
:102540001A687B681B6822F400421A6001F02AFDB9
:10255000F8607B685B68814A934207D8FB68804AD1
:10256000934294BF01230023DBB206E0FB687D4A5F
:10257000934294BF01230023DBB2002B01D001233F
:10258000E7E0FB68784AA2FB03239B0CBB607B68F7
:102590001B685B6823F03F017B681B68BA680A43CD
:1025A0005A607B681B681B6A23F03F017B685B688D
:1025B0006A4A934202D8BB68013309E0BB684FF412
:1025C000967202FB03F3694AA2FB03239B090133C2
:1025D0007A6812680B4313627B681B68DB6923F41B
:1025E0004F4222F0FF027B685B685C498B4219D83E
:1025F000FB68591E7B685B685B00B1FBF3F3591CF9
:1026000040F6FC730B40002B0AD0FB68591E7B6818
:102610005B685B00B1FBF3F30133C3F30B0351E0E1
:1026200004234FE07B689B68002B11D1FB68581E88
:102630007B6859680B465B000B44B0FBF3F3013336
:10264000C3F30B03002B0CBF01230023DBB212E00A
:10265000FB68581E7B6859680B469B000B44990029
:102660000B44B0FBF3F30133C3F30B03002B0CBF9C
:1026700001230023DBB2002B01D0012322E07B6881
:102680009B68002B0ED1FB68581E7B6859680B466F
:102690005B000B44B0FBF3F30133C3F30B0343F4D0
:1026A00000430FE0FB68581E7B6859680B469B008F
:1026B0000B4499000B44B0FBF3F30133C3F30B035A
:1026C00043F44043796809681343CB617B681B6816
:1026D0001B6823F0C0017B68DA697B681B6A1A43B8
:1026E0007B681B680A431A607B681B689B6823F43D
:1026F000034323F0FF037A6811697A68D2681143B3
:102700007A6812680B4393607B681B68DB6823F070
:10271000FF017B685A697B689B691A437B681B6869
:102720000A43DA607B681B681A687B681B6842F0A2
:1027300001021A607B6800221A647B68202283F8F9
:102740003D207B6800221A637B68002283F83E20CC
:10275000002318461037BD4680BD00BFA08601008B
:102760007F841E00FF083D0083DE1B43D34D6210B3
:1027700080B588B002AFF860084611461A46034695
:102780007B810B463B811346FB80FFF7D7FB7861CB
:10279000FB6893F83D30DBB2202B40F0D9807B6999
:1027A0000093192301226D49F86800F0FBFD0346F0
:1027B000002B01D00223CCE0FB6893F83C30012BC6
:1027C00001D10223C5E0FB68012283F83C20FB68AD
:1027D0001B681B6803F00103012B07D0FB681B6813
:1027E0001A68FB681B6842F001021A60FB681B68EC
:1027F0001A68FB681B6822F400621A60FB682122D9
:1028000083F83D20FB68402283F83E20FB680022CD
:102810001A64FB683A6A5A62FB68BA8C5A85FB688C
:102820005B8D9AB2FB681A85FB684D4ADA62F888BC
:102830003A8979897B690193BB6A00930346F868FA
:1028400000F032FC0346002B52D0012381E07A696C
:10285000B96AF86800F0C0FE0346002B0DD0FB6893
:102860001B6C042B07D1FB681B681A68FB681B688C
:1028700042F400721A6001236BE0FB685B6A1A780D
:10288000FB681B681A61FB685B6A5A1CFB685A622A
:10289000FB681B8D013B9AB2FB681A85FB685B8D58
:1028A0009BB2013B9AB2FB685A85FB681B685B6967
:1028B00003F00403042B1BD1FB681B8D002B17D0E6
:1028C000FB685B6A1A78FB681B681A61FB685B6AC5
:1028D0005A1CFB685A62FB681B8D013B9AB2FB686D
:1028E0001A85FB685B8D9BB2013B9AB2FB685A85E7
:1028F000FB681B8D002BAAD17A69B96AF86800F0D1
:10290000B3FE0346002B0DD0FB681B6C042B07D1D4
:10291000FB681B681A68FB681B6842F400721A6047
:10292000012316E0FB681B681A68FB681B6842F409
:1029300000721A60FB68202283F83D20FB680022A9
:1029400083F83E20FB68002283F83C20002300E04F
:10295000022318461837BD4680BD00BF0200100094
:102960000000FFFF80B58CB002AFF860084611464A
:102970001A4603467B810B463B811346FB800023AE
:102980003B62FFF7DBFA7862FB6893F83D30DBB21D
:10299000202B40F050827B6A009319230122824948
:1029A000F86800F0FFFC0346002B01D0022343E24D
:1029B000FB6893F83C30012B01D102233CE2FB6819
:1029C000012283F83C20FB681B681B6803F00103AD
:1029D000012B07D0FB681B681A68FB681B6842F074
:1029E00001021A60FB681B681A68FB681B6822F406
:1029F00000621A60FB68222283F83D20FB684022B7
:102A000083F83E20FB6800221A64FB683A6B5A6226
:102A1000FB68BA8E5A85FB685B8D9AB2FB681A8593
:102A2000FB68624ADA62F8883A8979897B6A01939D
:102A3000BB6B00930346F86800F0CCFB0346002B09
:102A400001D00123F8E1FB681B8D002B13D100237B
:102A5000FB61FB681B685B69FB61FB681B689B692A
:102A6000FB61FB69FB681B681A68FB681B6842F422
:102A700000721A60CCE1FB681B8D012B1ED1FB6834
:102A80001B681A68FB681B6822F480621A6072B6C1
:102A900000BF0023BB61FB681B685B69BB61FB680F
:102AA0001B689B69BB61BB69FB681B681A68FB6894
:102AB0001B6842F400721A6062B635E0FB681B8D39
:102AC000022B1ED1FB681B681A68FB681B6842F466
:102AD00000621A6072B600BF00237B61FB681B684E
:102AE0005B697B61FB681B689B697B617B69FB6839
:102AF0001B681A68FB681B6822F480621A6062B661
:102B000012E0FB681B681A68FB681B6842F480626D
:102B10001A6000233B61FB681B685B693B61FB68D3
:102B20001B689B693B613B6972E1FB681B8D032B52
:102B300000F21F81FB681B8D012B23D17A6AB96BD0
:102B4000F86800F0D9FD0346002B01D0012373E1A2
:102B5000FB681B681A69FB685B6AD2B21A70FB6873
:102B60005B6A5A1CFB685A62FB681B8D013B9AB278
:102B7000FB681A85FB685B8D9BB2013B9AB2FB68D0
:102B80005A8545E1FB681B8D022B52D17B6A00936D
:102B9000BB6B00220649F86800F004FC0346002BDA
:102BA00008D0012348E100BF020010000000FFFF31
:102BB0000400010072B600BFFB681B681A68FB685E
:102BC0001B6842F400721A60FB681B681A69FB6894
:102BD0005B6AD2B21A70FB685B6A5A1CFB685A6265
:102BE000FB681B8D013B9AB2FB681A85FB685B8D05
:102BF0009BB2013B9AB2FB685A8562B600BFFB6884
:102C00001B681A69FB685B6AD2B21A70FB685B6A60
:102C10005A1CFB685A62FB681B8D013B9AB2FB6829
:102C20001A85FB685B8D9BB2013B9AB2FB685A85A3
:102C3000EEE07B6A0093BB6B00228149F86800F0EC
:102C4000B1FB0346002B01D00123F5E0FB681B68B4
:102C50001A68FB681B6822F480621A6072B600BFB3
:102C6000FB681B681A69FB685B6AD2B21A70FB6862
:102C70005B6A5A1CFB685A62FB681B8D013B9AB267
:102C8000FB681A85FB685B8D9BB2013B9AB2FB68BF
:102C90005A856C4B1B68DB086B4AA2FB03231A0A9C
:102CA00013469B001344DA00D31A3B623B6A013B94
:102CB0003B623B6A002B18D1FB6800221A63FB6859
:102CC000202283F83D20FB68002283F83E20FB6829
:102CD0001B6C43F02002FB681A6462B600BFFB68FD
:102CE000002283F83C200123A6E0FB681B685B6997
:102CF00003F00403042BD9D1FB681B681A68FB6836
:102D00001B6842F400721A60FB681B681A69FB6852
:102D10005B6AD2B21A70FB685B6A5A1CFB685A6223
:102D2000FB681B8D013B9AB2FB681A85FB685B8DC3
:102D30009BB2013B9AB2FB685A8562B600BFFB6842
:102D40001B681A69FB685B6AD2B21A70FB685B6A1F
:102D50005A1CFB685A62FB681B8D013B9AB2FB68E8
:102D60001A85FB685B8D9BB2013B9AB2FB685A8562
:102D70004EE07A6AB96BF86800F0BEFC0346002B9F
:102D800001D0012358E0FB681B681A69FB685B6A85
:102D9000D2B21A70FB685B6A5A1CFB685A62FB6805
:102DA0001B8D013B9AB2FB681A85FB685B8D9BB259
:102DB000013B9AB2FB685A85FB681B685B6903F0AC
:102DC0000403042B24D1FB681B8D032B07D1FB6864
:102DD0001B681A68FB681B6822F480621A60FB6833
:102DE0001B681A69FB685B6AD2B21A70FB685B6A7F
:102DF0005A1CFB685A62FB681B8D013B9AB2FB6848
:102E00001A85FB685B8D9BB2013B9AB2FB685A85C1
:102E1000FB681B8D002B7FF488AEFB68202283F8B3
:102E20003D20FB68002283F83E20FB68002283F8E7
:102E30003C20002300E0022318462837BD4680BD11
:102E4000040001000000002089B5F81480B58AB0A4
:102E500002AFF8607A603B600B467B81FFF76EF84B
:102E6000F8610023BB61FB6893F83D30DBB2202B97
:102E700040F01181FB690093192301228849F86809
:102E800000F090FA0346002B01D0022304E1FB6816
:102E900093F83C30012B01D10223FDE0FB680122B5
:102EA00083F83C20FB681B681B6803F00103012BBF
:102EB00007D0FB681B681A68FB681B6842F00102B8
:102EC0001A60FB681B681A68FB681B6822F40062C2
:102ED0001A60FB68242283F83D20FB6800221A64F4
:102EE000FB68704ADA62FB681B681A68FB681B683B
:102EF00042F480721A60FB6900933B6800224FF035
:102F00000111F86800F04EFA0346002B0DD0FB6863
:102F10001B681B6803F48073B3F5807F03D1FB68E3
:102F20004FF400721A640323B6E07B89DBB21A46C1
:102F3000FB681B6802F0FE021A61FEF7FFFFF861F2
:102F4000FB681B685B6903F00203022B0CBF0123C3
:102F50000023DBB2FB75FB681B685B6903F48063CD
:102F6000B3F5806F0CBF01230023DBB2BB7525E0F6
:102F7000FEF7E4FF0246FB69D31A3A689A4202D38D
:102F80003B68002B03D1FB68A02283F83D20FB683F
:102F90001B685B6903F00203022B0CBF01230023B3
:102FA000DBB2FB75FB681B685B6903F48063B3F5F8
:102FB000806F0CBF01230023DBB2BB75FB6893F865
:102FC0003D30DBB2A02B05D0FB7D002B02D1BB7DB9
:102FD000002BCDD0FB68202283F83D20FB681B68C6
:102FE0005B6903F00203022B29D1FB681B681A6896
:102FF000FB681B6842F400721A6000233B61FB68A7
:103000001B685B693B61FB681B689B693B613B69B3
:10301000FB690093192301222149F86800F0C2F9E5
:103020000346002B01D0012336E0FB68202283F801
:103030003D20FB68002283F83C2000232CE0FB6845
:103040001B681A68FB681B6842F400721A60FB6810
:103050001B686FF480625A61FB6900931923012297
:103060000F49F86800F09EF90346002B01D00123B8
:1030700012E0BB690133BB61BA697B689A42FFF415
:1030800032AFFB68202283F83D20FB68002283F8E2
:103090003C20012300E0022318462037BD4680BDB6
:1030A000020010000000FFFF80B588B002AFF8609A
:1030B000084611461A4603467B810B463B81134660
:1030C000FB80FB681B681A68FB681B6842F480720F
:1030D0001A607B6A00933B6A00224FF00111F86886
:1030E00000F060F90346002B0DD0FB681B681B68DD
:1030F00003F48073B3F5807F03D1FB684FF4007253
:103100001A6403235FE07B89DBB21A46FB681B6805
:1031100002F0FE021A617B6A3A6A2D49F86800F0F3
:10312000BBF90346002B01D001234CE000237B6157
:10313000FB681B685B697B61FB681B689B697B6143
:103140007B697A6A396AF86800F046FA0346002B10
:103150000DD0FB681B6C042B07D1FB681B681A6839
:10316000FB681B6842F400721A6001232BE0FB88A5
:10317000012B05D13B89DAB2FB681B681A6121E09B
:103180003B891B0A9BB2DAB2FB681B681A617A6A38
:10319000396AF86800F020FA0346002B0DD0FB686E
:1031A0001B6C042B07D1FB681B681A68FB681B6843
:1031B00042F400721A60012305E03B89DAB2FB6831
:1031C0001B681A61002318461837BD4680BD00BF32
:1031D0000200010080B588B002AFF86008461146D1
:1031E0001A4603467B810B463B811346FB80FB68F6
:1031F0001B681A68FB681B6842F480621A60FB68EF
:103200001B681A68FB681B6842F480721A607B6A4C
:1032100000933B6A00224FF00111F86800F0C2F8F9
:103220000346002B0DD0FB681B681B6803F48073FA
:10323000B3F5807F03D1FB684FF400721A64032357
:10324000AAE07B89DBB21A46FB681B6802F0FE022B
:103250001A617B6A3A6A5249F86800F01DF9034620
:10326000002B01D0012397E000237B61FB681B68E2
:103270005B697B61FB681B689B697B617B697A6A20
:10328000396AF86800F0A8F90346002B0DD0FB68F6
:103290001B6C042B07D1FB681B681A68FB681B6852
:1032A00042F400721A60012376E0FB88012B05D1FD
:1032B0003B89DAB2FB681B681A6121E03B891B0A73
:1032C0009BB2DAB2FB681B681A617A6A396AF868DD
:1032D00000F082F90346002B0DD0FB681B6C042B19
:1032E00007D1FB681B681A68FB681B6842F4007210
:1032F0001A60012350E03B89DAB2FB681B681A614F
:103300007A6A396AF86800F067F90346002B0DD035
:10331000FB681B6C042B07D1FB681B681A68FB68F1
:103320001B6842F400721A60012335E0FB681B68D9
:103330001A68FB681B6842F480721A607B6A00930B
:103340003B6A00224FF00111F86800F02BF80346A9
:10335000002B0DD0FB681B681B6803F48073B3F56A
:10336000807F03D1FB684FF400721A64032313E0DB
:103370007B89DBB243F00103DAB2FB681B681A6198
:103380007B6A3A6A0649F86800F086F80346002B23
:1033900001D0012300E0002318461837BD4680BD48
:1033A0000200010080B584B000AFF860B9603B60F6
:1033B0001346FB7148E03B68B3F1FF3F44D0FEF792
:1033C000BDFD0246BB69D31A3A689A4202D33B68F4
:1033D000002B39D1BB681B0CDBB2012B0DD1FB6874
:1033E0001B685B69DA43BB6813409BB2002B0CBFC0
:1033F00001230023DBB21A460CE0FB681B689B69C3
:10340000DA43BB6813409BB2002B0CBF012300239F
:10341000DBB21A46FB799A4216D1FB6800221A6386
:10342000FB68202283F83D20FB68002283F83E20C1
:10343000FB681B6C43F02002FB681A64FB680022E7
:1034400083F83C20012323E0BB681B0CDBB2012B7B
:103450000DD1FB681B685B69DA43BB6813409BB204
:10346000002B0CBF01230023DBB21A460CE0FB68E3
:103470001B689B69DA43BB6813409BB2002B0CBFEF
:1034800001230023DBB21A46FB799A4293D0002332
:1034900018461037BD4680BD80B584B000AFF860D7
:1034A000B9607A603B6071E0FB681B685B6903F49C
:1034B0008063B3F5806F23D1FB681B681A68FB68D3
:1034C0001B6842F400721A60FB681B686FF480622C
:1034D0005A61FB6800221A63FB68202283F83D20B2
:1034E000FB68002283F83E20FB681B6C43F004025B
:1034F000FB681A64FB68002283F83C20012367E024
:103500007B68B3F1FF3F41D0FEF718FD02463B68F0
:10351000D31A7A689A4202D37B68002B36D1BB68F3
:103520001B0CDBB2012B0CD1FB681B685B69DA4317
:10353000BB6813409BB2002B14BF01230023DBB2F6
:103540000BE0FB681B689B69DA43BB6813409BB2C6
:10355000002B14BF01230023DBB2002B16D0FB6825
:1035600000221A63FB68202283F83D20FB680022BA
:1035700083F83E20FB681B6C43F02002FB681A6452
:10358000FB68002283F83C20012321E0BB681B0C70
:10359000DBB2012B0CD1FB681B685B69DA43BB68AB
:1035A00013409BB2002B14BF01230023DBB20BE0BE
:1035B000FB681B689B69DA43BB6813409BB2002B16
:1035C00014BF01230023DBB2002B7FF46DAF002377
:1035D00018461037BD4680BD80B584B000AFF86096
:1035E000B9607A6034E0F86800F0E3F80346002B35
:1035F00001D0012334E0BB68B3F1FF3F28D0FEF7D0
:103600009DFC02467B68D31ABA689A4202D3BB6813
:10361000002B1DD1FB681B685B6903F08003802BC6
:1036200016D0FB6800221A63FB68202283F83D2035
:10363000FB68002283F83E20FB681B6C43F02002ED
:10364000FB681A64FB68002283F83C20012307E032
:10365000FB681B685B6903F08003802BC3D10023E8
:1036600018461037BD4680BD80B584B000AFF86005
:10367000B9607A6034E0F86800F09BF80346002BEC
:1036800001D0012334E0BB68B3F1FF3F28D0FEF73F
:1036900055FC02467B68D31ABA689A4202D3BB68CB
:1036A000002B1DD1FB681B685B6903F00403042B2E
:1036B00016D0FB6800221A63FB68202283F83D20A5
:1036C000FB68002283F83E20FB681B6C43F020025D
:1036D000FB681A64FB68002283F83C20012307E0A2
:1036E000FB681B685B6903F00403042BC3D1002350
:1036F00018461037BD4680BD80B584B000AFF86075
:10370000B9607A6049E0FB681B685B6903F01003ED
:10371000102B19D1FB681B686FF010025A61FB680F
:1037200000221A63FB68202283F83D20FB680022F8
:1037300083F83E20FB681A6CFB681A64FB68002261
:1037400083F83C20012330E0FEF7F8FB02467B685B
:10375000D31ABA689A4202D3BB68002B1DD1FB680A
:103760001B685B6903F04003402B16D0FB68002206
:103770001A63FB68202283F83D20FB68002283F84F
:103780003E20FB681B6C43F02002FB681A64FB6858
:10379000002283F83C20012307E0FB681B685B697B
:1037A00003F04003402BAED1002318461037BD462E
:1037B00080BD80B483B000AF78607B681B685B69B4
:1037C00003F48063B3F5806F1BD17B681B686FF4D3
:1037D00080625A617B6800221A637B68202283F82A
:1037E0003D207B68002283F83E207B681B6C43F001
:1037F00004027B681A647B68002283F83C20012362
:1038000000E0002318460C37BD4680BC704700001E
:1038100080B586B000AF78607B68002B01D10123B2
:1038200072E27B681B6803F00103002B00F08780C5
:10383000924B5B6803F00C03042B0CD08F4B5B683E
:1038400003F00C03082B12D18C4B5B6803F480331C
:10385000B3F5803F0BD1894B1B6803F40033002B79
:103860006CD07B685B68002B68D101234CE27B68DD
:103870005B68B3F5803F06D1804B1B687F4A43F4F9
:10388000803313602EE07B685B68002B0CD17B4B90
:103890001B687A4A23F480331360784B1B68774A9D
:1038A00023F4802313601DE07B685B68B3F5A02FD1
:1038B0000CD1724B1B68714A43F4802313606F4B29
:1038C0001B686E4A43F4803313600BE06B4B1B683C
:1038D0006A4A23F480331360684B1B68674A23F4F9
:1038E000802313607B685B68002B13D0FEF726FBF8
:1038F000386108E0FEF722FB02463B69D31A642BCD
:1039000001D9032300E25D4B1B6803F40033002B55
:10391000F0D014E0FEF712FB386108E0FEF70EFB72
:1039200002463B69D31A642B01D90323ECE1534BC4
:103930001B6803F40033002BF0D100E000BF7B686C
:103940001B6803F00203002B63D04C4B5B6803F051
:103950000C03002B0BD0494B5B6803F00C03082BC6
:103960001CD1464B5B6803F48033002B16D1434BCC
:103970001B6803F00203002B05D07B681B69012B39
:1039800001D00123C0E13D4B1B6823F0F8027B68A6
:103990005B69DB00394913430B603AE07B681B69C4
:1039A000002B20D0364B01221A60FEF7C7FA38618F
:1039B00008E0FEF7C3FA02463B69D31A022B01D98D
:1039C0000323A1E12D4B1B6803F00203002BF0D071
:1039D0002A4B1B6823F0F8027B685B69DB002749F0
:1039E00013430B6015E0264B00221A60FEF7A6FA7F
:1039F000386108E0FEF7A2FA02463B69D31A022BAF
:103A000001D9032380E11D4B1B6803F00203002B47
:103A1000F0D17B681B6803F00803002B3AD07B6869
:103A20009B69002B19D0174B01221A60FEF786FA0A
:103A3000386108E0FEF782FA02463B69D31A022B8E
:103A400001D9032360E10D4B5B6A03F00203002BF5
:103A5000F0D0012000F0BAFA1CE00A4B00221A60F4
:103A6000FEF76CFA38610FE0FEF768FA02463B6930
:103A7000D31A022B08D9032346E100BF00100240ED
:103A80000000424280044242924B5B6A03F0020310
:103A9000002BE9D17B681B6803F00403002B00F0C6
:103AA000A6800023FB758B4BDB6903F08053002B52
:103AB0000DD1884BDB69874A43F08053D361854B36
:103AC000DB6903F08053BB60BB680123FB75824B4D
:103AD0001B6803F48073002B18D17F4B1B687E4A50
:103AE00043F480731360FEF729FA386108E0FEF7AB
:103AF00025FA02463B69D31A642B01D9032303E15B
:103B0000754B1B6803F48073002BF0D07B68DB6877
:103B1000012B06D16F4B1B6A6E4A43F001031362FF
:103B20002DE07B68DB68002B0CD16A4B1B6A694A6D
:103B300023F001031362674B1B6A664A23F00403F8
:103B400013621CE07B68DB68052B0CD1614B1B6AA0
:103B5000604A43F0040313625E4B1B6A5D4A43F004
:103B6000010313620BE05B4B1B6A5A4A23F001030B
:103B70001362584B1B6A574A23F0040313627B6895
:103B8000DB68002B15D0FEF7D9F938610AE0FEF7A3
:103B9000D5F902463B69D31A41F28832934201D9E2
:103BA0000323B1E04B4B1B6A03F00203002BEED062
:103BB00014E0FEF7C3F938610AE0FEF7BFF90246E8
:103BC0003B69D31A41F28832934201D903239BE027
:103BD000404B1B6A03F00203002BEED1FB7D012B4F
:103BE00005D13C4BDB693B4A23F08053D3617B68B2
:103BF000DB69002B00F08780364B5B6803F00C0319
:103C0000082B61D07B68DB69022B46D1334B002245
:103C10001A60FEF793F9386108E0FEF78FF9024663
:103C20003B69D31A022B01D903236DE0294B1B6892
:103C300003F00073002BF0D17B681B6AB3F5803F63
:103C400008D1244B5B6823F400327B689B682149D0
:103C500013434B601F4B5B6823F474127B68196A33
:103C60007B685B6A0B431B4913434B601B4B012270
:103C70001A60FEF763F9386108E0FEF75FF9024663
:103C80003B69D31A022B01D903233DE0114B1B687A
:103C900003F00073002BF0D035E0104B00221A60C7
:103CA000FEF74CF9386108E0FEF748F902463B6937
:103CB000D31A022B01D9032326E0064B1B6803F01D
:103CC0000073002BF0D11EE07B68DB69012B07D16C
:103CD000012319E0001002400070004060004242E1
:103CE0000B4B5B68FB60FB6803F480327B681B6AEC
:103CF0009A4206D1FB6803F470127B685B6A9A42B1
:103D000001D0012300E0002318461837BD4680BDCE
:103D10000010024080B584B000AF786039607B68E5
:103D2000002B01D10123D0E06A4B1B6803F007038D
:103D30003A689A4210D9674B1B6823F0070265491D
:103D40003B6813430B60634B1B6803F007033A683F
:103D50009A4201D00123B8E07B681B6803F002039C
:103D6000002B20D07B681B6803F00403002B05D0D8
:103D7000594B5B68584A43F4E06353607B681B68A7
:103D800003F00803002B05D0534B5B68524A43F401
:103D900060535360504B5B6823F0F0027B689B6874
:103DA0004D4913434B607B681B6803F00103002BF4
:103DB00040D07B685B68012B07D1474B1B6803F43D
:103DC0000033002B15D101237FE07B685B68022B59
:103DD00007D1414B1B6803F00073002B09D101236D
:103DE00073E03D4B1B6803F00203002B01D101235C
:103DF0006BE0394B5B6823F003027B685B683649F4
:103E000013434B60FEF79AF8F8600AE0FEF796F865
:103E10000246FB68D31A41F28832934201D9032348
:103E200053E02D4B5B6803F00C027B685B689B00E2
:103E30009A42EBD1274B1B6803F007033A689A427A
:103E400010D2244B1B6823F0070222493B6813431E
:103E50000B60204B1B6803F007033A689A4201D0BD
:103E6000012332E07B681B6803F00403002B08D0B9
:103E7000194B5B6823F4E0627B68DB6816491343E7
:103E80004B607B681B6803F00803002B09D0124BC2
:103E90005B6823F460527B681B69DB000E491343A7
:103EA0004B6000F021F802460B4B5B681B0903F0E6
:103EB0000F030A49CB5C22FA03F3094A1360094B4A
:103EC0001B681846FDF7F8FF002318461037BD465B
:103ED00080BD00BF0020024000100240D8590008F9
:103EE000000000200400002080B487B000AF002351
:103EF000FB600023BB6000237B6100237B60002309
:103F00003B611E4B5B68FB60FB6803F00C03042BFA
:103F100002D0082B03D027E0194B3B6127E0FB6858
:103F20009B0C03F00F03174AD35C7B60FB6803F420
:103F30008033002B10D0114B5B685B0C03F0010346
:103F4000114AD35CBB607B680D4A03FB02F2BB687D
:103F5000B2FBF3F37B6104E07B680C4A02FB03F3E2
:103F60007B617B693B6102E0054B3B6100BF3B69C4
:103F700018461C37BD4680BC704700BF0010024089
:103F800000127A00F0590008005A000800093D00AC
:103F900080B400AF024B1B681846BD4680BC70471A
:103FA0000000002080B500AFFFF7F2FF0246054B8E
:103FB0005B681B0A03F007030349CB5C22FA03F397
:103FC000184680BD00100240E859000880B485B052
:103FD00000AF78600A4B1B680A4AA2FB03235B0A06
:103FE0007A6802FB03F3FB6000BFFB685A1EFA60AD
:103FF000002BF9D100BF00BF1437BD4680BC70470D
:1040000000000020D34D621080B582B000AF786010
:104010007B68002B01D1012376E07B685B6A002B73
:1040200008D17B685B68B3F5827F09D07B6800228A
:10403000DA6105E07B6800221A617B6800225A6120
:104040007B6800229A627B6893F85130DBB2002BC8
:1040500006D17B68002283F850207868FDF7A2FD26
:104060007B68022283F851207B681B681A687B6892
:104070001B6822F040021A607B685B6803F482725E
:104080007B689B6803F404431A437B68DB6803F492
:1040900000631A437B681B6903F002031A437B68C1
:1040A0005B6903F001031A437B689B6903F40073A7
:1040B0001A437B68DB6903F038031A437B681B6A89
:1040C00003F0800342EA03017B689B6A03F4005219
:1040D0007B681B680A431A607B689B691A0C7B68C3
:1040E0001B6802F004025A607B681B68DA697B680F
:1040F0001B6822F40062DA617B6800225A657B68E3
:10410000012283F85120002318460837BD4680BDA0
:1041100080B588B000AFF860B9603B601346FB80A3
:10412000FDF70CFFF861FB887B83FB6893F8513047
:10413000DBB2012B01D002232AE1BB68002B02D0A5
:10414000FB88002B01D1012322E1FB6893F850305A
:10415000012B01D102231BE1FB68012283F85020CF
:10416000FB68032283F85120FB6800225A65FB6834
:10417000BA681A63FB68FA889A86FB68FA88DA8656
:10418000FB6800229A63FB6800229A87FB68002282
:10419000DA87FB6800225A64FB6800221A64FB6815
:1041A0009B68B3F5004F0FD1FB681B681A68FB686A
:1041B0001B6822F040021A60FB681B681A68FB68E3
:1041C0001B6842F480421A60FB681B681B6803F09E
:1041D0004003402B07D0FB681B681A68FB681B680C
:1041E00042F040021A60FB68DB68B3F5006F52D101
:1041F000FB685B68002B02D07B8B012B45D1FB68F1
:104200001B6B1A88FB681B68DA60FB681B6B9A1CC7
:10421000FB681A63FB68DB8E9BB2013B9AB2FB68BA
:10422000DA8632E0FB681B689B6803F00203022B0E
:1042300012D1FB681B6B1A88FB681B68DA60FB688D
:104240001B6B9A1CFB681A63FB68DB8E9BB2013BFD
:104250009AB2FB68DA8618E0FDF770FE0246FB6949
:10426000D31A3A689A4203D83B68B3F1FF3F02D1B0
:104270003B68002B09D1FB68012283F85120FB68C1
:10428000002283F85020032382E0FB68DB8E9BB280
:10429000002BC7D153E0FB685B68002B02D07B8BFF
:1042A000012B47D1FB681A6BFB681B680C33127833
:1042B0001A70FB681B6B5A1CFB681A63FB68DB8E69
:1042C0009BB2013B9AB2FB68DA8633E0FB681B685D
:1042D0009B6803F00203022B13D1FB681A6BFB6887
:1042E0001B680C3312781A70FB681B6B5A1CFB6836
:1042F0001A63FB68DB8E9BB2013B9AB2FB68DA86DD
:1043000018E0FDF71BFE0246FB69D31A3A689A4291
:1043100003D83B68B3F1FF3F02D13B68002B09D1C2
:10432000FB68012283F85120FB68002283F85020AB
:1043300003232DE0FB68DB8E9BB2002BC6D1FA690C
:104340003968F86800F066FA0346002B02D0FB6873
:1043500020225A65FB689B68002B0AD100237B61F1
:10436000FB681B68DB687B61FB681B689B687B6183
:104370007B69FB68012283F85120FB68002283F8E7
:104380005020FB685B6D002B01D0012300E000236F
:1043900018462037BD4680BD80B58AB000AFF860B2
:1043A000B9607A607B8001237B62FDF7C7FD3862CC
:1043B000FB6893F85130FB77FB685B68BB617B88D7
:1043C000FB82FB7F012B0CD0BB69B3F5827F06D14A
:1043D000FB689B68002B02D1FB7F042B01D00223DA
:1043E0007FE1BB68002B05D07B68002B02D07B8867
:1043F000002B01D1012374E1FB6893F85030012BAD
:1044000001D102236DE1FB68012283F85020FB6893
:1044100093F85130DBB2042B03D0FB68052283F8FC
:104420005120FB6800225A65FB687A689A63FB6832
:104430007A88DA87FB687A889A87FB68BA681A6391
:10444000FB687A88DA86FB687A889A86FB6800229D
:104450001A64FB6800225A64FB681B681B6803F03F
:104460004003402B07D0FB681B681A68FB681B6879
:1044700042F040021A60FB68DB68B3F5006F7ED142
:10448000FB685B68002B02D0FB8A012B6CD1FB68B8
:104490001B6B1A88FB681B68DA60FB681B6B9A1C35
:1044A000FB681A63FB68DB8E9BB2013B9AB2FB6828
:1044B000DA8659E0FB681B689B6803F00203022B55
:1044C0001BD1FB68DB8E9BB2002B16D07B6A012BC5
:1044D00013D1FB681B6B1A88FB681B68DA60FB68EA
:1044E0001B6B9A1CFB681A63FB68DB8E9BB2013B5B
:1044F0009AB2FB68DA8600237B62FB681B689B68C4
:1045000003F00103012B19D1FB68DB8F9BB2002B59
:1045100014D0FB681B68DA68FB689B6B92B21A8048
:10452000FB689B6B9A1CFB689A63FB68DB8F9BB2F2
:10453000013B9AB2FB68DA8701237B62FDF7FEFC40
:1045400002463B6AD31A3A6B9A420DD83B6BB3F1E1
:10455000FF3F09D0FB68012283F85120FB6800224D
:1045600083F850200323BCE0FB68DB8E9BB2002B5A
:10457000A0D1FB68DB8F9BB2002B9BD182E0FB6854
:104580005B68002B02D0FB8A012B71D1FB681A6B90
:10459000FB681B680C3312781A70FB681B6B5A1C83
:1045A000FB681A63FB68DB8E9BB2013B9AB2FB6827
:1045B000DA865DE0FB681B689B6803F00203022B50
:1045C0001CD1FB68DB8E9BB2002B17D07B6A012BC2
:1045D00014D1FB681A6BFB681B680C3312781A70D5
:1045E000FB681B6B5A1CFB681A63FB68DB8E9BB273
:1045F000013B9AB2FB68DA8600237B62FB681B688A
:104600009B6803F00103012B19D1FB68DB8F9BB280
:10461000002B14D0FB681B68DA68FB689B6BD2B276
:104620001A70FB689B6B5A1CFB689A63FB68DB8FF4
:104630009BB2013B9AB2FB68DA8701237B62FDF7EC
:104640007DFC02463B6AD31A3A6B9A4203D83B6B15
:10465000B3F1FF3F02D13B6B002B09D1FB68012274
:1046600083F85120FB68002283F85020032338E0B0
:10467000FB68DB8E9BB2002B9CD1FB68DB8F9BB26F
:10468000002B97D13A6A396BF86800F0C3F80346FB
:10469000002B08D0FB6820225A65FB68002283F8B3
:1046A000502001231DE0FB689B68002B0AD10023EA
:1046B0003B61FB681B68DB683B61FB681B689B68B0
:1046C0003B613B69FB68012283F85120FB680022B3
:1046D00083F85020FB685B6D002B01D0012300E0C4
:1046E000002318462837BD4680BD80B483B000AF94
:1046F00078607B6893F85130DBB218460C37BD46C2
:1047000080BC704780B588B000AFF860B9603B608E
:104710001346FB71FDF712FC0246BB6A9B1A3A680E
:104720001344FB61FDF70AFCB861394B1B685B0160
:104730001B0DFA6902FB03F37B6154E03B68B3F1A4
:10474000FF3F50D0FDF7FAFB0246BB69D31AFA6966
:104750009A4202D9FB69002B3DD1FB681B685A685D
:10476000FB681B6822F0E0025A60FB685B68B3F5E7
:10477000827F11D1FB689B68B3F5004F04D0FB68C2
:104780009B68B3F5806F07D1FB681B681A68FB68EC
:104790001B6822F040021A60FB689B6AB3F5005F59
:1047A0000FD1FB681B681A68FB681B6822F4005273
:1047B0001A60FB681B681A68FB681B6842F40052A9
:1047C0001A60FB68012283F85120FB68002283F8FD
:1047D0005020032317E07B69002B01D10023FB61EC
:1047E0007B69013B7B61FB681B689A68BB6813406F
:1047F000BA689A420CBF01230023DBB21A46FB7948
:104800009A429BD1002318462037BD4680BD00BF89
:104810000000002080B586B002AFF860B9607A6011
:104820007B680093BB6801220221F868FFF76AFFEA
:104830000346002B07D0FB685B6D43F02002FB684A
:104840005A65032313E07B680093BB680022802134
:10485000F868FFF757FF0346002B07D0FB685B6D36
:1048600043F02002FB685A65032300E0002318464A
:104870001037BD4680BD0000002310B50446C0E9D6
:104880000033C0E90433836081814366C281836160
:10489000194608225C3000F0F9F90D4B246263627E
:1048A0000C4BA3620C4BE3620C4B23630C4B9C42FE
:1048B00006D003F16802944202D0D0339C4205D165
:1048C00004F15800BDE8104000F058BA10BD00BF18
:1048D000DD4A0008FF4A0008374B00085B4B000820
:1048E00088020020024A0349034800F069B800BF6B
:1048F0000C000020115600081C00002041680C4BE1
:1049000010B59942044601D000F082FEA168094B1F
:10491000994202D0204600F07BFEE168064B9942A6
:1049200004D02046BDE8104000F072BE10BD00BFAC
:1049300088020020F00200205803002010B50B4B25
:104940000B4C0C4A20461A6004210022FFF794FF0A
:1049500004F1680001220921FFF78EFF04F1D00065
:104960000222BDE810401221FFF786BFC0030020DD
:1049700088020020E5480008014800F000BA00BFA6
:10498000C9030020014800F0FBB900BFC9030020A3
:1049900010B50446FFF7F0FF236A1BB1BDE81040D5
:1049A000FFF7F0BF044B2362044B1B68002BF5D1CB
:1049B000FFF7C4FFF2E700BFFD480008C003002076
:1049C0002DE9F8430746884614460026D4E90195A8
:1049D000B9F1010905D52468002CF7D13046BDE8AE
:1049E000F883AB89012B07D9B5F90E30013303D019
:1049F00029463846C04706436835E9E70FB407B58E
:104A0000064904AB086853F8042B8168019300F051
:104A1000D7FA03B05DF804EB04B07047180000202B
:104A2000036A70B505460E4684680BB9FFF7B0FF00
:104A3000636EDB0705D4A389980502D4A06D00F04E
:104A40009EF9A389190702D52369002B35D1214688
:104A5000284600F0C5F880B34FF0FF35636EDA07E3
:104A600005D4A3899B0502D4A06D00F089F92846DE
:104A700070BD002B04DAA2699A4217DC0A2915D00E
:104A800023685A1C22601970A36816F8011F013BA5
:104A9000A3600029EDD1002B11DA22460A21284615
:104AA00000F05FF80130D7D00A25D7E72246284624
:104AB00000F057F80130E7D1CEE7013EE4E7236884
:104AC0005A1C22600A221A70EEE70000024B0146CF
:104AD0001868FFF7A5BF00BF1800002010B50C46EE
:104AE000B1F90E1000F0FCF80028ABBF636DA3898C
:104AF0001B1823F48053ACBF6365A38110BD2DE95F
:104B0000F0411F468B890546DB050C46164605D548
:104B100002230022B1F90E1000F0D0F8A38932462A
:104B200023F48053A38128463B46B4F90E10BDE818
:104B3000F04100F0E7B810B50C46B1F90E1000F0E6
:104B4000BDF8431CA38915BF606523F4805343F46B
:104B50008053A38118BFA38110BDB1F90E1000F0DE
:104B60009DB8F8B50E461446054618B1036A0BB950
:104B7000FFF70EFFA369A360A3891A0701D5236974
:104B800043B92146284600F02BF818B14FF0FF3703
:104B90003846F8BD23682269F6B2981A6369374629
:104BA000834205DC2146284600F032FD0028EDD185
:104BB000A368013BA36023685A1C22601E706269CF
:104BC000431C9A4204D0A389DB07E1D50A2EDFD12A
:104BD0002146284600F01CFD0028D9D0D6E7000069
:104BE00038B5294B054618680C4618B1036A0BB94D
:104BF000FFF7CEFEB4F90C30190722D4DA0607D439
:104C000009222A6043F040034FF0FF30A38133E0D4
:104C1000580712D5616B41B104F14403994202D0A7
:104C2000284600F0AFF800236363A38923F0240330
:104C3000A3810023636023692360A38943F00803F1
:104C4000A38123694BB9A38903F42073B3F5007FD3
:104C500003D02146284600F028FDB4F90C3013F0AB
:104C600001020AD00022A26062695242A261226956
:104C700042B913F08000C5D138BD990758BF6269A9
:104C8000A260F4E70020F7E7180000200346024482
:104C9000934200D1704703F8011BF9E738B50023B0
:104CA000054D044608462B60FDF75DF8431C02D114
:104CB0002B6803B1236038BDC403002038B5044617
:104CC000084611460022054D2A601A46FDF76FF886
:104CD000431C02D12B6803B1236038BDC4030020FC
:104CE00038B50446084611460022054D2A601A468A
:104CF000FDF700F8431C02D12B6803B1236038BDD7
:104D0000C403002038B50446084611460022054D6C
:104D10002A601A46FDF70BF8431C02D12B6803B139
:104D2000236038BDC4030020014B1868704700BFE2
:104D30001800002070B500260C4D0D4C641BA4100B
:104D4000A64209D100F02EFD00260A4D0A4C641B34
:104D5000A410A64205D170BD55F8043B9847013612
:104D6000EEE755F8043B98470136F2E7405A000851
:104D7000405A0008405A0008445A000870477047DB
:104D80007047000038B50546002940D051F8043C72
:104D90000C1F002BB8BFE41800F0DEF81C4A1368A3
:104DA00033B9636014602846BDE8384000F0DAB8D3
:104DB000A34208D9206821188B4201BF19685B689B
:104DC00009182160EDE71A465B680BB1A342FAD9D6
:104DD00011685018A0420BD120680144501883423A
:104DE0001160E0D118685B68084410605360DAE72E
:104DF00002D90C232B60D6E7206821188B4201BF13
:104E000019685B680918216063605460CBE738BD9E
:104E1000D003002070B50F4E0C463168054611B91D
:104E200000F0A2FC30602146284600F09DFC431CA7
:104E300003D14FF0FF34204670BDC41C24F003049E
:104E4000A042F8D0211A284600F08EFC0130F2D1A1
:104E5000EFE700BFCC0300202DE9F843CD1C25F07F
:104E6000030508350C2D38BF0C25002D064601DB47
:104E7000A94204D90C2333600020BDE8F883DFF891
:104E8000D48000F069F8D8F800301C4644BB2946AD
:104E90003046FFF7BFFF431C044658D1D8F8004006
:104EA0002746002F43D1002C4BD02368394630468B
:104EB00004EB030900F058FC814542D121683046DB
:104EC0006D1A2946FFF7A6FF01303AD023682B441C
:104ED0002360D8F800305A6862BBC8F800700FE051
:104EE0002268521B20D40B2A17D96119A3422560CE
:104EF00018BF5960636808BFC8F8001062514B6062
:104F0000304600F02FF804F10B00231D20F00700BD
:104F1000C21A1CBF1B1AA350AFE76268A3420CBFA2
:104F2000C8F800205A60EBE723466468AEE73C46C9
:104F30007F68B6E71A465B68A342FBD10023536043
:104F4000DEE70C233046336000F00CF894E7056090
:104F5000D6E700BFD00300200148FFF710BF00BF15
:104F6000C80300200148FFF70BBF00BFC8030020A3
:104F7000936810B4013B002B936007DA9469A34255
:104F800001DB0A2902D110BCFFF7EBBD1368581CE6
:104F900010601970084610BC7047F8B506460F46F9
:104FA0001446D518AC4201D1002007E03A463046FD
:104FB00014F8011BFFF7DCFF431CF3D1F8BD000020
:104FC0002DE9F04F0D461446984606469DB018B19F
:104FD000036A0BB9FFF7DCFC6B6ED90705D4AB890C
:104FE0009A0502D4A86DFFF7CAFEAB891B0701D54D
:104FF0002B699BB929463046FFF7F2FD70B16B6E05
:10500000DC0704D54FF0FF301DB0BDE8F08FAB8951
:105010009805F7D4A86DFFF7B3FEF3E700230993D3
:1050200020238DF8293030234FF00109CDF80C8072
:10503000DFF8A8818DF82A3023469A4613F8012B11
:105040000AB1252AF9D1BAEB040B0BD05B462246F4
:1050500029463046FFF7A1FF013000F0A780099AEA
:105060005A4409929AF80030002B00F09F800023E8
:105070004FF0FF32CDE905230AF1010A04930793AB
:105080008DF853301A935446052214F8011B5348E7
:1050900000F07AFB049AD8B9D10644BF20238DF8DA
:1050A0005330130744BF2B238DF853309AF8003048
:1050B0002A2B15D0544600204FF00A0C079A21469F
:1050C00011F8013B303B092B4BD9B0B1079214E0EA
:1050D000A0EB080309FA03F31343A2460493D2E7B3
:1050E000039B191D1B680391002BBBBF5B4242F061
:1050F000020207930793B8BF049223782E2B0AD19C
:1051000063782A2B32D1039B02341A1D1B68039249
:1051100043EAE3730593DFF8C8A0032250462178E1
:1051200000F032FB38B14022049BA0EB0A00824021
:1051300013430134049314F8011B062229488DF807
:10514000281000F021FB00283FD0274B1BBB039BFE
:10515000073323F0070308330393099B3B44099368
:105160006AE70C4601200CFB0232A8E700234FF04F
:105170000A0C194601340593204610F8012B303AE9
:10518000092A03D9002BC6D00591C4E704460123A0
:105190000CFB0121F0E703AB00932A463046134B8A
:1051A00004A9AFF300800746781CD6D16B6ED907EF
:1051B00005D4AB899A0502D4A86DFFF7E1FDAB8950
:1051C0005B063FF51FAF09981EE703AB00932A4625
:1051D0003046064B04A900F07DF8E4E7025A0008C7
:1051E000085A00080C5A0008000000009B4F0008F5
:1051F0002DE9F047164698468A680B6907469342A0
:10520000B8BF1346336091F843200C46DDF8209078
:105210000AB1013333602368990642BF3368023311
:105220003360256815F0060506D104F1190AE36814
:1052300032689B1AAB422BDC94F843302268003B67
:1052400018BF0123920630D44146384604F1430288
:10525000C847013023D02368226903F00603042BDA
:1052600014BF002533684FF0000608BFE56804F15D
:105270001A0408BFED1A54F8123C08BF25EAE57578
:105280009342C4BF9B1AED18B5421AD1002008E022
:105290000123524641463846C847013003D14FF0FA
:1052A000FF30BDE8F0870135C1E73020E11881F813
:1052B00043005A1C94F845102244023382F84310EC
:1052C000C2E70123224641463846C8470130E6D0AE
:1052D0000136D9E72DE9FF470F7E9146782F8046AA
:1052E0000C469A460C9E01F1430207D8622F0AD859
:1052F000002F00F0D180582F00F0B88004F1420652
:1053000084F842703AE0A7F16303152BF6D801A1A7
:1053100051F823F06D53000881530008FD52000836
:10532000FD520008FD520008FD520008815300089C
:10533000FD520008FD520008FD520008FD52000811
:105340007F540008AB53000839540008FD52000890
:10535000FD520008A1540008FD520008AB5300089C
:10536000FD520008FD5200084154000833681A1D20
:105370001B68326004F1420684F8423001239CE04D
:1053800033682068191D3160060601D51D6803E0E9
:105390004506FBD5B3F90050002D03DA2D236D42ED
:1053A00084F843300A23584811E02168336808061E
:1053B00053F8045B02D4490648BFADB26F2F336087
:1053C00014BF0A2308235048002184F8431066685C
:1053D000002EA66005DB21682E4321F00401216028
:1053E0004BD01646B5FBF3F103FB1157C75D06F82A
:1053F000017D2F46BB420D46F4D9082B0BD1236803
:10540000DF0708D5236961689942DEBF302306F8BB
:10541000013C06F1FF36921B22614B462146404675
:10542000CDF800A003AAFFF7E3FE01304AD14FF008
:10543000FF3004B0BDE8F087236843F02003236009
:105440007827324884F84570236831681F0651F880
:10545000045B02D45F0648BFADB23160D90744BFD8
:1054600043F0200323601DB11023ADE72648E9E790
:10547000236823F020032360F6E71646BDE7336870
:105480002568181D616930602E061B6801D51960FA
:1054900002E06806FBD51980002316462361BCE7AD
:1054A000336800211A1D32601E686268304600F0C1
:1054B0006BF908B1801B606063682361002384F886
:1054C0004330AAE73246494640462369D047013077
:1054D000ADD023689B0713D4E068039B9842B8BF04
:1054E0001846A6E70123324649464046D0470130D8
:1054F0009DD00135E36803995B1AAB42F2DCEBE720
:10550000002504F11906F5E7135A0008245A00088B
:10551000B1F90C20F8B5160705460C4654D44B6873
:10552000002B02DC0B6C002B48DDE66A002E45D018
:10553000002312F480522F68216A2B6030D0626DF4
:10554000A389590705D56368D21A636B0BB1236C25
:10555000D21A00232846E66A216AB047431CA38971
:1055600006D129681D292BD8284ACA40D60727D535
:10557000002262602269D904226004D5421C01D154
:105580002B6803B96065616B2F60B9B104F1440306
:10559000994202D02846FFF7F5FB002363630DE034
:1055A00001232846B0470246501CC9D12B68002B66
:1055B000C6D01D2B01D0162B1DD12F60002021E05D
:1055C00043F040031BB21AE00F69002FF6D0930797
:1055D00018BF00230E6808BF4B69F61B0F608B6075
:1055E000002EEBDD33463A462846216AD4F828C01F
:1055F000E047002807DCB4F90C3043F040034FF0DB
:10560000FF30A381F8BD0744361AE9E701004020C6
:1056100038B50B6905460C4613B90025284638BD38
:1056200018B1036A0BB9FFF7B3F9B4F90C30002BCA
:10563000F3D0626ED00704D4990502D4A06DFFF7B1
:105640009EFB28462146FFF763FF636E0546DA0797
:10565000E4D4A3899B05E1D4A06DFFF791FBDDE7BE
:1056600070B50C46B1F90E10154600291E4696B0CD
:105670000CDAA389002113F0800F14BF40234FF4EC
:105680008063002031602B6016B070BD6A4600F068
:1056900049F80028EDDB019901F47041A1F50053B0
:1056A000594259414FF48063EBE78B89F7B59D0769
:1056B00006460C4607D504F1470323602361012306
:1056C000636103B0F0BD6A4601ABFFF7C9FF009FFD
:1056D000054639463046FFF7BFFB48B9B4F90C30F0
:1056E0009A05EED423F0030343F00203A381E2E71B
:1056F000A389C4E9040743F08003A381019B2060D0
:105700005BB13046B4F90E1000F01EF828B1A38941
:1057100023F0030343F00103A381A3891D43A58163
:10572000CFE7000038B50023064D04460846114671
:105730002B60FCF723FB431C02D12B6803B12360D1
:1057400038BD00BFC403002038B50023054D044612
:1057500008462B60FCF721FB431C02D12B6803B1E8
:10576000236038BDC403002038B50023054D04462E
:1057700008462B60FCF728FB431C02D12B6803B1C1
:10578000236038BDC4030020034610B5C9B20244EB
:105790009342184601D1002003E0047801338C4283
:1057A000F6D110BDF8B500BFF8BC08BC9E467047E6
:0C57B000F8B500BFF8BC08BC9E4670476E
:1057BC0053797374656D20496E697469616C697A8B
:1057CC0065642E204D505536303530202B204C6FD3
:1057DC005261205458202D20436F6D62696E6564B0
:1057EC002054696C74204C6F6769632E0D000000A7
:1057FC004C6F636174696E67204D5055363035308F
:10580C002E2E2E0D00000000464154414C3A204DE6
:10581C00505536303530204E4F5420464F554E445F
:10582C00204F4E20493243204255532E0D0000008C
:10583C004D50553630353020666F756E642E2049CC
:10584C006E697469616C697A696E672064657669E2
:10585C0063652E2E2E0D00004D5055363035302000
:10586C00496E6974204661696C65642E20526574BA
:10587C007279696E6720696E2032732E2E2E0D00A0
:10588C004D50553630353020496E697469616C69FC
:10589C007A6564205375636365737366756C6C7994
:1058AC002E0D0000496E697469616C697A696E67C6
:1058BC00204C6F5261205458204D6F64756C652ECE
:1058CC002E2E0D004C6F5261205458204D6F647574
:1058DC006C6520496E697469616C697A65642E2007
:1058EC0056657273696F6E3A203078253032580DD8
:1058FC000A0000004C6F5261205458204D6F6475A3
:10590C006C6520496E6974204641494C4544212000
:10591C00526561642056657273696F6E3A203078F7
:10592C00253032580D0A00005374617465204465AB
:10593C007465637465643A202564202D3E2053659C
:10594C006E64696E67206F766572204C6F52612EA3
:10595C002E2E0D0A000000004C6F52612050616326
:10596C006B65742053656E64204641494C45442157
:10597C00204C6962205374617475733A2025640D50
:10598C000A000000464154414C2053595354454D94
:10599C00204552524F5220696E204572726F725FD1
:1059AC0048616E646C657228292E0D00FFFCF9F6B7
:1059BC00060708090A0B0C00000102030405060780
:1059CC0008090000010203040100000000000000AF
:1059DC000000000001020304060708090000000093
:1059EC000102030402030405060708090A0B0C0D47
:1059FC000E0F10100102232D302B2000686C4C0070
:105A0C0065666745464700303132333435363738B2
:105A1C003941424344454600303132333435363710
:0C5A2C00383961626364656600000000A8
:085A3800F0ACFF7F010000004B
:045A40003501000824
:045A44001101000844
:105A480000127A00100000000100000000000000B1
:105A580003000000880200201C0000200000000055
:105A680088020020F00200205803002000000000F7
:105A7800000000000000000000000000000000001E
:105A8800000000000000000000000000000000000E
:105A980000000000000000000000000000000000FE
:085AA8000000000000000000F6
:0400000508001E4190
:00000001FF
