:020000040800F2
:1000000000280020011600082D14000835140008EF
:100010003D140008451400084D14000800000000BD
:10002000000000000000000000000000551400085F
:1000300061140008000000006D1400087914000825
:100040004916000849160008491600084916000814
:1000500049160008491600084916000885140008CA
:1000600049160008491600084916000849160008F4
:1000700049160008491600084916000849160008E4
:1000800049160008491600084916000849160008D4
:1000900049160008491600084916000849160008C4
:1000A00049160008491600084916000849160008B4
:1000B000491600084916000800000000491600080B
:1000C0004916000800000000000000004916000862
:1000D0000000000049160008491600080000000052
:1000E00049160008491600084916000800000000DB
:1000F0000000000000000000000000000000000000
:0C01000000000000000000005FF808F1A3
:1001100010B5054C237833B9044B13B10448AFF341
:1001200000800123237010BD10000020000000009B
:10013000F435000808B5034B1BB103490348AFF37E
:10014000008008BD0000000014000020F435000805
:1001500053B94AB9002908BF00281CBF4FF0FF312E
:100160004FF0FF3000F08CB9ADF1080C6DE904CE12
:1001700000F006F8DDF804E0DDE9022304B0704782
:100180002DE9F047089D8E4604468846002B4AD14B
:100190008A42174662D9B2FA82F64EB1C6F12003FE
:1001A00001FA06F820FA03F3B74043EA0808B4401E
:1001B0004FEA174EB8FBFEF11FFA87FC0EFB1188C1
:1001C00001FB0CF2230C43EA08439A4209D9FB18BD
:1001D00001F1FF3080F0EB809A4240F2E880023972
:1001E0003B449A1AB2FBFEF00EFB102200FB0CFC03
:1001F000A3B243EA02439C4509D9FB1800F1FF3240
:1002000080F0D7809C4540F2D4803B44023840EADD
:1002100001400021A3EB0C031DB10022F340C5E90E
:100220000032BDE8F0878B4205D90DB1C5E9000168
:1002300000210846F5E7B3FA83F1002946D173455A
:1002400002D3824200F20881841A6EEB030201207D
:100250009046002DE5D0C5E90048E2E7002A00F00D
:100260009180B2FA82F6002E40F0A5808A1A012110
:10027000030C4FEA174E80B2BCB2B2FBFEFC0EFB81
:100280001C2243EA024304FB0CF29A4207D9FB18F2
:100290000CF1FF3802D29A4200F2E380C4469B1A66
:1002A000B3FBFEF20EFB123302FB04F440EA0343FD
:1002B0009C4207D9FB1802F1FF3002D29C4200F2A7
:1002C000CD8002461B1B42EA0C40A5E7C1F1200687
:1002D0008B4022FA06F71F432EFA06FA4FEA174917
:1002E000BAFBF9F80EFA01FE20FA06F309FB18AA88
:1002F0001FFA87FC43EA0E0300FA01FE08FB0CF02C
:100300001C0C44EA0A44A04202FA01F20AD93C1940
:1003100008F1FF3A80F09E80A04240F29B80A8F155
:1003200002083C44241A98B2B4FBF9F309FB1344C5
:1003300003FB0CFC40EA0444A44509D93C1903F131
:10034000FF3080F08580A44540F28280023B3C442F
:1003500043EA0840A4EB0C04A0FB028C644543462E
:10036000E14664D361D05DB1BEEB030264EB0904E6
:1003700004FA06F622FA01F31E43CC40C5E90064F4
:1003800000214EE7B1FBF2FC010C41EA0E4180B2C4
:1003900040EA01423B46B1FBF7F138463C46B846DD
:1003A000BE462026A2EB080241EA0C4165E7014661
:1003B00017E710462BE7C6F120012EFA01FCB740E3
:1003C0000EFA06FE20FA01F141EA0E014FEA174E3D
:1003D000BCFBFEF8BCB20EFB18CC08FB04F90A0CFF
:1003E00042EA0C42B04091454FEA104380B23ED9F8
:1003F000BA1808F1FF3C01D291451FD8A2EB0902BF
:10040000B2FBFEF909FB04F80EFB192A8AB242EA94
:100410000A42424529D2BA1809F1FF31C2D24245F7
:10042000C0D2A9F102013A44BCE7C6459BD2B8EB61
:1004300002036CEB070C0138E14694E7A7EB0909CE
:100440004A44B2FBFEF9A8F1020C09FB04F8DBE711
:1004500003467DE7D04665E70846FAE63B44023AA4
:1004600030E7ACF1020C3B4419E749469AE7A2EBAE
:100470000902B2FBFEF9C44609FB04F8C4E700BF59
:10048000704700BF80B584B000AF78600B46FB704A
:100490007B681B68FA781146184600F081FB7B6880
:1004A0001B68184600F09CFB0346FB737B681B68C7
:1004B0000121184600F039FBFB7B18461037BD467A
:1004C00080BD80B582B000AF78600B46FB701346EC
:1004D000BB707B681B680021184600F026FB7B6818
:1004E0001A68FB7863F07F03DBB21946104600F010
:1004F00057FB7B681B68BA781146184600F050FB22
:100500007B681B680121184600F00FFB00BF08370D
:10051000BD4680BD90B587B000AFF8607A601A46DE
:100520000B46FB721346BB72BB7A002B27D0FB68CD
:100530001B680021184600F0F8FAFB681B68FA7A7D
:100540001146184600F02CFB0023FB750CE0FB68FD
:100550001968FB7D7A68D418084600F041FB034611
:100560002370FB7D0133FB75FA7DBB7A9A42EED393
:10057000FB681B680121184600F0D7FA00E000BFB5
:100580001C37BD4690BD80B586B000AFF8607A607C
:100590001A460B46FB721346BB72BB7A002B29D05E
:1005A000FB681B680021184600F0BFFAFB681A6858
:1005B000FB7A63F07F03DBB21946104600F0F0FAD5
:1005C0000023FB750BE0FB681868FB7D7A68134419
:1005D0001B78194600F0E4FAFB7D0133FB75FA7DC8
:1005E000BB7A9A42EFD3FB681B680121184600F0E2
:1005F0009CFA00E000BF1837BD4680BD80B586B0CC
:1006000000AF7860786800F00DF90F2000F00EFB65
:10061000786800F017F97B68D3E902234FF00000F7
:100620004FF00001D90441EA5231D0046F4A4FF033
:100630000003FFF78DFD02460B46C7E90423D7E907
:1006400004014FF000024FF00003020C42EA0142A5
:100650000B0CD3B23B73D7E904014FF000024FF00B
:100660000003020A42EA01620B0AD3B27B733B7CAD
:10067000BB7307F10C02032306217868FFF783FFA1
:10068000122239217868FFF71CFF7B681B7C1A4611
:10069000574B9B5C1A4609217868FFF712FF0B2223
:1006A0000B217868FFF70DFF23220C217868FFF7F4
:1006B00008FF7B685B7C1A464E4B9B5C062B47D140
:1006C0007B689B7C1A464C4B9B5C1B01DAB27B68B7
:1006D000DB7C1946494B5B5C5B00DBB21344DBB24D
:1006E0000133DBB21A461D217868FFF7EAFE7B680A
:1006F0005B7C1A463F4B9B5C1B01DAB27B681B7D1F
:1007000019463F4B5B5C9B00DBB21344DBB2033307
:10071000DBB21A461E217868FFF7D3FE31217868D4
:10072000FFF7B0FE0346FB73FB7B23F00703FB736D
:10073000FB7B43F00503FB73FB7B1A463121786892
:10074000FFF7BFFE0C2237217868FFF7BAFE29E0D9
:100750007B689B7C1A46284B9B5C1B01DAB27B684A
:10076000DB7C1946254B5B5C5B00DBB21344DBB2E0
:100770001A461D217868FFF7A4FE7B685B7C1A4649
:100780001C4B9B5C1B01DAB27B681B7D19461C4B22
:100790005B5C9B00DBB21344DBB21A461E21786817
:1007A000FFF78FFE042226217868FFF78AFE0822D1
:1007B0001F217868FFF785FE002220217868FFF767
:1007C00080FE082221217868FFF77BFE012241216B
:1007D0007868FFF776FE7B68002283F81721786837
:1007E00000F010F800BF1837BD4680BD0048E80192
:1007F0000C360008103600081836000824360008A9
:100800002836000880B582B000AF78600922012147
:100810007868FFF756FE7B6801229A7500BF08379B
:10082000BD4680BD80B582B000AF7860082201214E
:100830007868FFF746FE7B6800229A7500BF08378C
:10084000BD4680BD80B582B000AF786088220121AE
:100850007868FFF736FE00BF0837BD4680BD80B51B
:1008600082B000AF7860FF2212217868FFF729FE7E
:1008700000BF0837BD4680BD80B586B000AFF860C8
:100880000B467A60FB72FB68FA7A5A75F868FFF7D4
:10089000B5FE84224D21F868FFF713FEFF222421C4
:1008A000F868FFF70EFE01224021F868FFF709FE05
:1008B0003F221121F868FFF704FEF868FFF7CFFF29
:1008C000FB7A1A462221F868FFF7FBFD0F21F86832
:1008D000FFF7D8FD0346FB75FB7D1A460D21F8682E
:1008E000FFF7EFFD8D220121F868FFF7EAFDFB68B5
:1008F000002283F817211821F868FFF7C3FD03468B
:1009000003F00403042B04D1FB6803229A7501232E
:1009100013E07B68013B7B607B68002B09D1FB689F
:100920001B68184600F018F9F868FFF767FE002307
:1009300003E0012000F07AF9DDE718461837BD46DC
:1009400080BD80B584B000AF78600023FB737B6806
:100950001B68184600F075F90346002B58D0122189
:100960007868FFF78FFD0346BB737B681B7D002B08
:100970000DD1BB7B03F02003002B08D07868FFF774
:100980006EFF7B68002283F81721002343E07B6819
:1009900017334FF480720021184602F0F1FD102148
:1009A0007868FFF76FFD03467B737B7B1A460D214A
:1009B0007868FFF786FD7B685B7C002B03D17B6842
:1009C0005B7DFB7305E013217868FFF75BFD034651
:1009D000FB73FB7B002B0CD07B6803F11702FB7BC6
:1009E00000217868FFF796FD7B68FA7B83F8172172
:1009F0000BE0FB7B002B04D17B68002283F81721DE
:100A000003E07B68002283F817217868FFF727FF4F
:100A10007B6893F8173118461037BD4680BD80B506
:100A200084B000AFF860C7E90023FB681B68184674
:100A300000F066F8F968D7E90023C1E90223FB68F2
:100A40003A7E1A74FB683A7F5A74FB6897F8202044
:100A50009A74FB6897F82420DA74FB6897F82820CA
:100A60001A75FB6897F82C205A75F868FFF7C6FDD1
:100A700000BF1037BD4680BD80B584B000AFF860C0
:100A80000B467A60FB72FB7A7A681946F868FFF7C2
:100A9000F3FE034618461037BD4680BD80B582B0D0
:100AA00000AF78607868FFF74CFF034618460837B8
:100AB000BD4680BD80B584B000AFF860B960134614
:100AC000FB71FB6893F81731FA799A4203D0FB68FF
:100AD00093F81731FB71FB681733FA791946B86838
:100AE00002F07AFDFB79BA68134400221A70FB68A1
:100AF000002283F81721FB7918461037BD4680BDC8
:100B000080B582B000AF78600121786800F00DF800
:100B10007B6858687B681B689BB20122194601F00C
:100B2000BCF800BF0837BD4680BD80B582B000AFBD
:100B3000786039607B6858697B681B6999B23B684B
:100B4000012B0CBF01230023DBB21A4601F0A5F8EC
:100B500000BF0837BD4680BD80B582B000AF786069
:100B600001217868FFF7E1FF7B6858687B681B68A4
:100B70009BB20022194601F090F8012000F056F8CF
:100B80007B6858687B681B689BB20122194601F09C
:100B900084F8642000F04AF800BF0837BD4680BDE5
:100BA00080B582B000AF78600B46FB70002178689A
:100BB000FFF7BBFF7B689869F91C4FF47A73012239
:100BC00001F016FD00BF7B689B69184601F0FDFF30
:100BD0000346012BF7D100BF00BF0837BD4680BDDB
:100BE00080B586B002AF78600023FB730023BB732F
:100BF00000217868FFF799FF7B68986907F10E027A
:100C000007F10F014FF47A730093012301F034FED2
:100C100000BF7B689B69184601F0D7FF0346012B94
:100C2000F7D1BB7B18461037BD4680BD80B582B07A
:100C300000AF7860786800F06BFD00BF0837BD46F4
:100C400080BD80B582B000AF78607B68DA687B6871
:100C50009B689BB21946104601F008F80346012B29
:100C60000CBF01230023DBB218460837BD4680BD08
:100C700080B588B000AF07F1100300221A605A60F7
:100C80009A60DA60344B9B69334A43F020039361E6
:100C9000314B9B6903F02003FB60FB682E4B9B6983
:100CA0002D4A43F0040393612B4B9B6903F004032B
:100CB000BB60BB68284B9B69274A43F008039361DC
:100CC000254B9B6903F008037B607B6800220C21A5
:100CD000224800F0E2FF01221021204800F0DDFF51
:100CE000002247F208311E4800F0D7FF1C233B6169
:100CF00001237B610023BB610223FB6107F1100329
:100D00001946164800F036FE02233B61154B7B6105
:100D10000223BB6107F110031946114800F02AFEB7
:100D200047F208333B6101237B610023BB6102234F
:100D3000FB6107F110031946094800F01BFE002271
:100D40000021072000F0DFFD072000F0F8FD00BFC4
:100D50002037BD4680BD00BF0010024000080140A2
:100D6000000C01400000111080B58AB006AF00F001
:100D70006DFC00F0EDF8FFF77BFF00F0A5FA00F046
:100D80008FFB00F039F96A4B6A4A9A61684B6A4AEC
:100D90005A61674B10221A61654B684A5A60644B6E
:100DA00008221A60624B654ADA60614B02229A603F
:100DB000634B5F4A1A605E48FFF7CEFE40230593FF
:100DC0000023049300230393072302930123019339
:100DD0000123009354A3D3E900235948FFF71FFED2
:100DE000122239215648FFF76CFB42215448FFF785
:100DF00049FB0346FB73FB7B122B0CBF0123002333
:100E0000DBB2184600F010F94FF47A7000F080FC65
:100E100000F0F2F800214B4801F0ECFF0346002BF4
:100E200001D000F02FFA0421464801F0E3FF034609
:100E3000002B01D000F026FA00F0FAF940F6B832A3
:100E400040213F48FFF718FEB860BB68002B01D176
:100E500000F018FA3C4B1B78DBB2012BFAD13A4B6D
:100E600000221A703648FFF719FE0346FB71FB7922
:100E7000002B49D0FB791A4634493148FFF71AFE56
:100E8000324B1B78BB7100F0B7F8BB79042B38D814
:100E900001A252F823F000BFAD0E0008B30E000807
:100EA000C70E0008DB0E0008EF0E000800F0C0F9C6
:100EB0002AE0962000F0C4F901224FF480511F4827
:100EC00000F0EBFE20E0962000F0CBF901224FF479
:100ED00080511A4800F0E1FE16E0C82000F097F9B2
:100EE00001224FF48041154800F0D7FE0CE0C820E5
:100EF00000F07CF901224FF40051104800F0CDFEC3
:100F000002E000F095F900BF40F6B83240210C48ED
:100F1000FFF7B2FDB860BB68002B9BD100F0B2F9BF
:100F200098E700BFAFF30080400ECF19000000002B
:100F300048010020A801002000080140000C0140E9
:100F40003000002000020020A401002064010020E5
:100F500080B590B000AF07F1180328220021184691
:100F600002F00EFB3B1D00221A605A609A60DA60A4
:100F70001A610223BB610123BB621023FB620223BF
:100F80007B630023BB634FF46013FB6307F118031B
:100F9000184600F0CBFE0346002B01D000F072F99A
:100FA0000F237B600223BB600023FB604FF4806350
:100FB0003B6100237B613B1D0221184601F038F99B
:100FC0000346002B01D000F05DF900BF4037BD465D
:100FD00080BD000080B483B000AF0346FB80FB8877
:100FE000022B02D1034B01221A7000BF0C37BD4601
:100FF00080BC7047A401002080B500AF00224FF4F0
:101000000051084800F049FE00224FF48041054895
:1010100000F043FE00224FF48051024800F03DFEF4
:1010200000BF80BD000C014080B582B000AF786089
:101030007B68002B06D001224FF48051074800F056
:101040002CFE08E04FF48051044800F03EFEC8201A
:1010500000F05EFBF6E70837BD4680BD000C01409E
:1010600080B483B000AF0346FB80FB88B3F57A7F82
:1010700002D340F2E733FB80044B1B68FA885A63C3
:1010800000BF0C37BD4680BC704700BF0002002087
:1010900080B483B000AF0346FB80FB88B3F57A7F52
:1010A00002D340F2E733FB80044B1B68FA889A6353
:1010B00000BF0C37BD4680BC704700BF0002002057
:1010C00080B582B000AF0346FB8001224FF48071EF
:1010D000084800F0E2FD00224FF40071054800F0DE
:1010E000DCFDFB881846FFF7BBFF00BF0837BD4695
:1010F00080BD00BF000C014080B582B000AF034648
:10110000FB8000224FF48071084800F0C6FD0122E8
:101110004FF40071054800F0C0FDFB881846FFF74A
:101120009FFF00BF0837BD4680BD00BF000C0140D7
:1011300080B500AF00224FF48071074800F0ADFD8C
:1011400000224FF40071044800F0A7FD0020FFF7D3
:1011500087FF00BF80BD00BF000C014080B582B09A
:1011600000AF0346FB8001220421084800F095FDF2
:1011700000220821054800F090FDFB881846FFF783
:1011800087FF00BF0837BD4680BD00BF0008014093
:1011900080B582B000AF0346FB80002204210848DE
:1011A00000F07BFD01220821054800F076FDFB8858
:1011B0001846FFF76DFF00BF0837BD4680BD00BF72
:1011C0000008014080B500AF00220421064800F06D
:1011D00064FD00220821044800F05FFD0020FFF7B5
:1011E00057FF00BF80BD00BF0008014080B582B03E
:1011F00000AF0346FB80FB881846FFF761FFFB88C2
:101200001846FFF7ABFF00BF0837BD4680BD80B56D
:1012100082B000AF0346FB80FB881846FFF76CFFE7
:10122000FB881846FFF7B4FF00BF0837BD4680BDF6
:1012300080B500AFFFF77CFFFFF7C4FF00BF80BDA4
:1012400080B582B000AF0346FB80FB881846FFF7ED
:1012500037FFFB881846FFF79BFF00BF0837BD46E6
:1012600080BD80B582B000AF0346FB80FB88184686
:10127000FFF742FFFB881846FFF770FF00BF0837F3
:10128000BD4680BD80B500AF72B600BFFFF7B4FEAB
:10129000642000F03DFA01224FF40051094800F0AB
:1012A000FCFC01224FF48041064800F0F6FC0122CC
:1012B0004FF48051034800F0F0FC642000F028FA5D
:1012C00000BFE3E7000C014080B500AF174B184AA0
:1012D0001A60164B4FF482725A60144B00229A60C7
:1012E000124B0022DA60114B00221A610F4B0022D0
:1012F0005A610E4B4FF400729A610C4B1822DA615E
:101300000A4B00221A62094B00225A62074B002244
:101310009A62064B0A22DA62044801F0E5F80346B5
:10132000002B01D0FFF7AEFF00BF80BDA801002059
:101330000030014080B588B000AF786007F110033D
:1013400000221A605A609A60DA607B681B681B4A48
:1013500093422FD11A4B9B69194A43F480539361EE
:10136000174B9B6903F48053FB60FB68144B9B692C
:10137000134A43F004039361114B9B6903F0040388
:10138000BB60BB68A0233B6102237B610323FB613D
:1013900007F1100319460B4800F0ECFA40233B61BB
:1013A00000237B610023BB6107F110031946054848
:1013B00000F0E0FA00BF2037BD4680BD003001409C
:1013C000001002400008014080B485B000AF154B0A
:1013D0009B69144A43F001039361124B9B6903F02C
:1013E0000103BB60BB680F4BDB690E4A43F08053BF
:1013F000D3610C4BDB6903F080537B607B680A4B45
:101400005B68FB60FB6823F0E063FB60FB6843F014
:101410008063FB60044AFB68536000BF1437BD461D
:1014200080BC7047001002400000014080B400AF53
:1014300000BFFDE780B400AF00BFFDE780B400AFA0
:1014400000BFFDE780B400AF00BFFDE780B400AF90
:1014500000BFFDE780B400AF00BFBD4680BC704751
:1014600080B400AF00BFBD4680BC704780B400AF01
:1014700000BFBD4680BC704780B500AF00F02CF9BE
:1014800000BF80BD80B500AF022000F037FC00BF78
:1014900080BD80B400AF00BFBD4680BC7047000077
:1014A00080B58AB000AF07F1200300221A605A60AD
:1014B0003B1D00221A605A609A60DA601A615A6114
:1014C0009A61284B4FF080421A60264B47225A609F
:1014D000244B00229A60234B40F2E732DA60214B22
:1014E00000221A611F4B00229A611E4801F033FC52
:1014F0000346002B01D0FFF7C5FE00233B6200230B
:101500007B6207F120031946164801F0E1FF03460C
:10151000002B01D0FFF7B6FE60237B600023BB6089
:101520000023FB6000237B613B1D002219460D4810
:1015300001F0FCFC0346002B01D0FFF7A3FE3B1D8E
:1015400004221946074801F0F1FC0346002B01D0A4
:10155000FFF798FE034800F023F800BF2837BD4688
:1015600080BD00BF0002002080B485B000AF78606D
:101570007B681B68B3F1804F0BD1084BDB69074ACE
:1015800043F00103D361054BDB6903F00103FB600A
:10159000FB6800BF1437BD4680BC70470010024096
:1015A00080B588B000AF786007F1100300221A60A0
:1015B0005A609A60DA607B681B68B3F1804F17D17C
:1015C0000D4B9B690C4A43F0040393610A4B9B69E2
:1015D00003F00403FB60FB6803233B6102237B6190
:1015E0000223FB6107F110031946044800F0C2F919
:1015F00000BF2037BD4680BD0010024000080140FA
:10160000FFF747FF0B480C490C4A002302E0D4586F
:10161000C4500433C4188C42F9D3094A094C00233E
:1016200001E013600432A242FBD301F0B1FFFFF7E7
:101630009BFB7047000000200C0000206036000873
:10164000100000204C020020FEE7000080B500AF33
:10165000084B1B68074A43F010031360032000F097
:1016600047F90F2000F008F8FFF7AEFE00231846F8
:1016700080BD00BF0020024080B582B000AF78601E
:10168000124B1A68124B1B7819464FF47A73B3FB4E
:10169000F1F3B2FBF3F3184600F05FF90346002BB9
:1016A00001D001230EE07B680F2B0AD80022796855
:1016B0004FF0FF3000F027F9064A7B6813600023E3
:1016C00000E0012318460837BD4680BD0000002019
:1016D000080000200400002080B400AF054B1B78F8
:1016E0001A46054B1B681344034A136000BFBD46EE
:1016F00080BC7047080000204802002080B400AF82
:10170000024B1B681846BD4680BC7047480200204B
:1017100080B584B000AF7860FFF7F0FFB8607B68F9
:10172000FB60FB68B3F1FF3F05D00A4B1B781A46FC
:10173000FB681344FB6000BFFFF7E0FF0246BB6895
:10174000D31AFA689A42F7D800BF00BF1037BD46D7
:1017500080BD00BF0800002080B485B000AF786075
:101760007B6803F00703FB600C4BDB68BB60BA6867
:101770004FF6FF031340BB60FB681A02BB681343BC
:1017800043F0BF6343F40033BB60044ABB68D360DB
:1017900000BF1437BD4680BC704700BF00ED00E0BD
:1017A00080B400AF044BDB681B0A03F00703184644
:1017B000BD4680BC704700BF00ED00E080B483B040
:1017C00000AF0346FB7197F90730002B0BDBFB7969
:1017D00003F01F02064997F907305B09012000FA60
:1017E00002F241F8232000BF0C37BD4680BC704791
:1017F00000E100E080B483B000AF03463960FB71C4
:1018000097F90730002B0ADB3B68DAB20C4997F9ED
:1018100007301201D2B20B4483F800230AE03B6880
:10182000DAB20849FB7903F00F03043B1201D2B28C
:101830000B441A7600BF0C37BD4680BC704700BF12
:1018400000E100E000ED00E080B489B000AFF86096
:10185000B9607A60FB6803F00703FB61FB69C3F1C1
:101860000703042B28BF0423BB61FB690433062B49
:1018700002D9FB69033B00E000237B614FF0FF329C
:10188000BB6902FA03F3DA43BB681A407B699A40EA
:101890004FF0FF317B6901FA03F3D9437B680B40BA
:1018A000134318462437BD4680BC704780B582B0CC
:1018B00000AF78607B68013BB3F1807F01D30123E7
:1018C0000FE00A4A7B68013B53600F214FF0FF3065
:1018D000FFF790FF054B00229A60044B07221A6025
:1018E000002318460837BD4680BD00BF10E000E069
:1018F00080B582B000AF78607868FFF72DFF00BF39
:101900000837BD4680BD80B586B000AF0346B960DC
:101910007A60FB7300237B61FFF742FF78617A688E
:10192000B9687869FFF790FF024697F90F301146C2
:101930001846FFF75FFF00BF1837BD4680BD80B572
:1019400082B000AF0346FB7197F907301846FFF7E6
:1019500035FF00BF0837BD4680BD80B582B000AFFF
:1019600078607868FFF7A2FF034618460837BD463F
:1019700080BD000080B48BB000AF78603960002378
:101980007B6200233B6261E101227B6A02FA03F37E
:10199000FB613B681B68FA691340BB61BA69FB696C
:1019A0009A4240F050813B685B68974A93425ED010
:1019B000954A934275D8954A934258D0934A934298
:1019C0006FD8934A934252D0914A934269D8914A30
:1019D00093424CD08F4A934263D88F4A934246D069
:1019E0008D4A93425DD8122B2AD8122B59D801A2C6
:1019F00052F823F06F1A0008491A00085B1A000811
:101A00009D1A0008A31A0008A31A0008A31A0008C8
:101A1000A31A0008A31A0008A31A0008A31A0008B2
:101A2000A31A0008A31A0008A31A0008A31A0008A2
:101A3000A31A0008A31A0008511A0008651A000822
:101A4000764A934213D02CE03B68DB683B6229E086
:101A50003B68DB6804333B6224E03B68DB680833A7
:101A60003B621FE03B68DB680C333B621AE03B687B
:101A70009B68002B02D104233B6213E03B689B6808
:101A8000012B05D108233B627B68FA691A6109E0E2
:101A900008233B627B68FA695A6103E000233B62DA
:101AA00000E000BFBB69FF2B01D87B6801E07B68C9
:101AB00004337B61BB69FF2B02D87B6A9B0002E089
:101AC0007B6A083B9B003B617B691A680F213B697D
:101AD00001FA03F3DB431A40396A3B6901FA03F365
:101AE0001A437B691A603B685B6803F08053002BE4
:101AF00000F0A9804A4B9B69494A43F00103936176
:101B0000474B9B6903F00103BB60BB68454A7B6A96
:101B10009B08023352F82330FB607B6A03F0030317
:101B20009B000F2202FA03F3DB43FA681340FB60C9
:101B30007B683D4A93420DD07B683C4A934207D074
:101B40007B683B4A934201D1022304E0032302E075
:101B5000012300E000237A6A02F00302920093401E
:101B6000FA681343FB602F497B6A9B080233FA68CB
:101B700041F823203B685B6803F48013002B06D0F8
:101B80002C4B9A682B49BB6913438B6006E0294BA9
:101B90009A68BB69DB43274913408B603B685B68ED
:101BA00003F40013002B06D0224BDA682149BB69ED
:101BB0001343CB6006E01F4BDA68BB69DB431D496A
:101BC0001340CB603B685B6803F40033002B06D006
:101BD000184B5A681749BB6913434B6006E0154B15
:101BE0005A68BB69DB43134913404B603B685B6831
:101BF00003F48033002B1FD00E4B1A680D49BB69CC
:101C000013430B601FE000BF0000321000003110D2
:101C1000000022100000211000001210000011101E
:101C2000001002400000014000080140000C01408B
:101C300000100140000401400B4B1A68BB69DB43F4
:101C4000094913400B607B6A01337B623B681A6869
:101C50007B6A22FA03F3002B7FF496AE00BF00BF2D
:101C60002C37BD4680BC70470004014080B485B06D
:101C700000AF78600B467B807B689A687B88134056
:101C8000002B02D00123FB7301E00023FB73FB7BDD
:101C900018461437BD4680BC704780B483B000AF8F
:101CA00078600B467B8013467B707B78002B03D0DB
:101CB0007A887B681A6103E07B881A047B681A6162
:101CC00000BF0C37BD4680BC704780B485B000AF04
:101CD00078600B467B807B68DB68FB607A88FB68FA
:101CE00013401A04FB68D9437B880B401A437B6876
:101CF0001A6100BF1437BD4680BC704780B582B002
:101D000000AF0346FB80084B5A69FB881340002B49
:101D100006D0054AFB885361FB881846FFF75AF93D
:101D200000BF0837BD4680BD0004014080B586B0C5
:101D300000AF78607B68002B01D1012372E27B68E1
:101D40001B6803F00103002B00F08780924B5B6857
:101D500003F00C03042B0CD08F4B5B6803F00C03D7
:101D6000082B12D18C4B5B6803F48033B3F5803FB2
:101D70000BD1894B1B6803F40033002B6CD07B68BC
:101D80005B68002B68D101234CE27B685B68B3F58C
:101D9000803F06D1804B1B687F4A43F48033136039
:101DA0002EE07B685B68002B0CD17B4B1B687A4A6A
:101DB00023F480331360784B1B68774A23F4802325
:101DC00013601DE07B685B68B3F5A02F0CD1724BEC
:101DD0001B68714A43F4802313606F4B1B686E4A83
:101DE00043F4803313600BE06B4B1B686A4A23F4A7
:101DF00080331360684B1B68674A23F480231360A9
:101E00007B685B68002B13D0FFF778FC386108E033
:101E1000FFF774FC02463B69D31A642B01D90323F4
:101E200000E25D4B1B6803F40033002BF0D014E09C
:101E3000FFF764FC386108E0FFF760FC02463B698D
:101E4000D31A642B01D90323ECE1534B1B6803F431
:101E50000033002BF0D100E000BF7B681B6803F06B
:101E60000203002B63D04C4B5B6803F00C03002B88
:101E70000BD0494B5B6803F00C03082B1CD1464B7D
:101E80005B6803F48033002B16D1434B1B6803F0CF
:101E90000203002B05D07B681B69012B01D00123B5
:101EA000C0E13D4B1B6823F0F8027B685B69DB00F7
:101EB000394913430B603AE07B681B69002B20D043
:101EC000364B01221A60FFF719FC386108E0FFF772
:101ED00015FC02463B69D31A022B01D90323A1E169
:101EE0002D4B1B6803F00203002BF0D02A4B1B681C
:101EF00023F0F8027B685B69DB00274913430B6022
:101F000015E0264B00221A60FFF7F8FB386108E065
:101F1000FFF7F4FB02463B69D31A022B01D90323D6
:101F200080E11D4B1B6803F00203002BF0D17B689E
:101F30001B6803F00803002B3AD07B689B69002BD9
:101F400019D0174B01221A60FFF7D8FB386108E05F
:101F5000FFF7D4FB02463B69D31A022B01D90323B6
:101F600060E10D4B5B6A03F00203002BF0D001200F
:101F700000F09CFA1CE00A4B00221A60FFF7BEFB3F
:101F800038610FE0FFF7BAFB02463B69D31A022B18
:101F900008D9032346E100BF00100240000042427E
:101FA00080044242924B5B6A03F00203002BE9D1AA
:101FB0007B681B6803F00403002B00F0A68000235D
:101FC000FB758B4BDB6903F08053002B0DD1884BE5
:101FD000DB69874A43F08053D361854BDB6903F0AB
:101FE0008053BB60BB680123FB75824B1B6803F405
:101FF0008073002B18D17F4B1B687E4A43F480739B
:102000001360FFF77BFB386108E0FFF777FB0246C0
:102010003B69D31A642B01D9032303E1754B1B6879
:1020200003F48073002BF0D07B68DB68012B06D1B2
:102030006F4B1B6A6E4A43F0010313622DE07B680D
:10204000DB68002B0CD16A4B1B6A694A23F0010341
:102050001362674B1B6A664A23F0040313621CE099
:102060007B68DB68052B0CD1614B1B6A604A43F02F
:10207000040313625E4B1B6A5D4A43F00103136263
:102080000BE05B4B1B6A5A4A23F001031362584B67
:102090001B6A574A23F0040313627B68DB68002B3A
:1020A00015D0FFF72BFB38610AE0FFF727FB02464C
:1020B0003B69D31A41F28832934201D90323B1E03C
:1020C0004B4B1B6A03F00203002BEED014E0FFF72A
:1020D00015FB38610AE0FFF711FB02463B69D31A92
:1020E00041F28832934201D903239BE0404B1B6AA3
:1020F00003F00203002BEED1FB7D012B05D13C4BFD
:10210000DB693B4A23F08053D3617B68DB69002B9A
:1021100000F08780364B5B6803F00C03082B61D01E
:102120007B68DB69022B46D1334B00221A60FFF734
:10213000E5FA386108E0FFF7E1FA02463B69D31A95
:10214000022B01D903236DE0294B1B6803F00073B8
:10215000002BF0D17B681B6AB3F5803F08D1244B7C
:102160005B6823F400327B689B68214913434B6012
:102170001F4B5B6823F474127B68196A7B685B6A87
:102180000B431B4913434B601B4B01221A60FFF7A3
:10219000B5FA386108E0FFF7B1FA02463B69D31A95
:1021A000022B01D903233DE0114B1B6803F00073A0
:1021B000002BF0D035E0104B00221A60FFF79EFA9A
:1021C000386108E0FFF79AFA02463B69D31A022BFE
:1021D00001D9032326E0064B1B6803F00073002B94
:1021E000F0D11EE07B68DB69012B07D1012319E0E8
:1021F0000010024000700040600042420B4B5B68E0
:10220000FB60FB6803F480327B681B6A9A4206D14C
:10221000FB6803F470127B685B6A9A4201D0012369
:1022200000E0002318461837BD4680BD001002406C
:1022300080B584B000AF786039607B68002B01D135
:102240000123D0E06A4B1B6803F007033A689A4207
:1022500010D9674B1B6823F0070265493B6813439D
:102260000B60634B1B6803F007033A689A4201D086
:102270000123B8E07B681B6803F00203002B20D029
:102280007B681B6803F00403002B05D0594B5B6887
:10229000584A43F4E06353607B681B6803F008030B
:1022A000002B05D0534B5B68524A43F46053536094
:1022B000504B5B6823F0F0027B689B684D491343E9
:1022C0004B607B681B6803F00103002B40D07B68E8
:1022D0005B68012B07D1474B1B6803F40033002BCD
:1022E00015D101237FE07B685B68022B07D1414B4E
:1022F0001B6803F00073002B09D1012373E03D4BF1
:102300001B6803F00203002B01D101236BE0394B62
:102310005B6823F003027B685B68364913434B60BC
:10232000FFF7ECF9F8600AE0FFF7E8F90246FB680E
:10233000D31A41F28832934201D9032353E02D4B43
:102340005B6803F00C027B685B689B009A42EBD1F0
:10235000274B1B6803F007033A689A4210D2244BBC
:102360001B6823F0070222493B6813430B60204B94
:102370001B6803F007033A689A4201D0012332E058
:102380007B681B6803F00403002B08D0194B5B68C3
:1023900023F4E0627B68DB68164913434B607B687B
:1023A0001B6803F00803002B09D0124B5B6823F471
:1023B00060527B681B69DB000E4913434B6000F0E1
:1023C00021F802460B4B5B681B0903F00F030A4917
:1023D000CB5C22FA03F3094A1360094B1B681846C9
:1023E000FFF74AF9002318461037BD4680BD00BFED
:1023F00000200240001002402C360008000000209F
:102400000400002080B487B000AF0023FB600023ED
:10241000BB6000237B6100237B6000233B611E4B7C
:102420005B68FB60FB6803F00C03042B02D0082BF5
:1024300003D027E0194B3B6127E0FB689B0C03F0BE
:102440000F03174AD35C7B60FB6803F48033002BD7
:1024500010D0114B5B685B0C03F00103114AD35C95
:10246000BB607B680D4A03FB02F2BB68B2FBF3F36F
:102470007B6104E07B680C4A02FB03F37B617B69B0
:102480003B6102E0054B3B6100BF3B6918461C37CE
:10249000BD4680BC704700BF0010024000127A00A9
:1024A0003C3600084C36000800093D0080B485B079
:1024B00000AF78600A4B1B680A4AA2FB03235B0A41
:1024C0007A6802FB03F3FB6000BFFB685A1EFA60E8
:1024D000002BF9D100BF00BF1437BD4680BC704748
:1024E00000000020D34D621080B582B000AF78604C
:1024F0007B68002B01D1012376E07B685B6A002BAF
:1025000008D17B685B68B3F5827F09D07B680022C5
:10251000DA6105E07B6800221A617B6800225A615B
:102520007B6800229A627B6893F85130DBB2002B03
:1025300006D17B68002283F850207868FEF7FAFE07
:102540007B68022283F851207B681B681A687B68CD
:102550001B6822F040021A607B685B6803F4827299
:102560007B689B6803F404431A437B68DB6803F4CD
:1025700000631A437B681B6903F002031A437B68FC
:102580005B6903F001031A437B689B6903F40073E2
:102590001A437B68DB6903F038031A437B681B6AC4
:1025A00003F0800342EA03017B689B6A03F4005254
:1025B0007B681B680A431A607B689B691A0C7B68FE
:1025C0001B6802F004025A607B681B68DA697B684A
:1025D0001B6822F40062DA617B6800225A657B681E
:1025E000012283F85120002318460837BD4680BDDC
:1025F00080B588B000AFF860B9603B601346FB80DF
:10260000FFF77CF8F861FB887B83FB6893F8513017
:10261000DBB2012B01D002232AE1BB68002B02D0E0
:10262000FB88002B01D1012322E1FB6893F8503095
:10263000012B01D102231BE1FB68012283F850200A
:10264000FB68032283F85120FB6800225A65FB686F
:10265000BA681A63FB68FA889A86FB68FA88DA8691
:10266000FB6800229A63FB6800229A87FB680022BD
:10267000DA87FB6800225A64FB6800221A64FB6850
:102680009B68B3F5004F0FD1FB681B681A68FB68A5
:102690001B6822F040021A60FB681B681A68FB681E
:1026A0001B6842F480421A60FB681B681B6803F0D9
:1026B0004003402B07D0FB681B681A68FB681B6847
:1026C00042F040021A60FB68DB68B3F5006F52D13C
:1026D000FB685B68002B02D07B8B012B45D1FB682C
:1026E0001B6B1A88FB681B68DA60FB681B6B9A1C03
:1026F000FB681A63FB68DB8E9BB2013B9AB2FB68F6
:10270000DA8632E0FB681B689B6803F00203022B49
:1027100012D1FB681B6B1A88FB681B68DA60FB68C8
:102720001B6B9A1CFB681A63FB68DB8E9BB2013B38
:102730009AB2FB68DA8618E0FEF7E0FF0246FB6912
:10274000D31A3A689A4203D83B68B3F1FF3F02D1EB
:102750003B68002B09D1FB68012283F85120FB68FC
:10276000002283F85020032382E0FB68DB8E9BB2BB
:10277000002BC7D153E0FB685B68002B02D07B8B3A
:10278000012B47D1FB681A6BFB681B680C3312786E
:102790001A70FB681B6B5A1CFB681A63FB68DB8EA4
:1027A0009BB2013B9AB2FB68DA8633E0FB681B6898
:1027B0009B6803F00203022B13D1FB681A6BFB68C2
:1027C0001B680C3312781A70FB681B6B5A1CFB6871
:1027D0001A63FB68DB8E9BB2013B9AB2FB68DA8618
:1027E00018E0FEF78BFF0246FB69D31A3A689A425B
:1027F00003D83B68B3F1FF3F02D13B68002B09D1FE
:10280000FB68012283F85120FB68002283F85020E6
:1028100003232DE0FB68DB8E9BB2002BC6D1FA6947
:102820003968F86800F066FA0346002B02D0FB68AE
:1028300020225A65FB689B68002B0AD100237B612C
:10284000FB681B68DB687B61FB681B689B687B61BE
:102850007B69FB68012283F85120FB68002283F822
:102860005020FB685B6D002B01D0012300E00023AA
:1028700018462037BD4680BD80B58AB000AFF860ED
:10288000B9607A607B8001237B62FEF737FF386294
:10289000FB6893F85130FB77FB685B68BB617B8812
:1028A000FB82FB7F012B0CD0BB69B3F5827F06D185
:1028B000FB689B68002B02D1FB7F042B01D0022315
:1028C0007FE1BB68002B05D07B68002B02D07B88A2
:1028D000002B01D1012374E1FB6893F85030012BE8
:1028E00001D102236DE1FB68012283F85020FB68CF
:1028F00093F85130DBB2042B03D0FB68052283F838
:102900005120FB6800225A65FB687A689A63FB686D
:102910007A88DA87FB687A889A87FB68BA681A63CC
:10292000FB687A88DA86FB687A889A86FB680022D8
:102930001A64FB6800225A64FB681B681B6803F07A
:102940004003402B07D0FB681B681A68FB681B68B4
:1029500042F040021A60FB68DB68B3F5006F7ED17D
:10296000FB685B68002B02D0FB8A012B6CD1FB68F3
:102970001B6B1A88FB681B68DA60FB681B6B9A1C70
:10298000FB681A63FB68DB8E9BB2013B9AB2FB6863
:10299000DA8659E0FB681B689B6803F00203022B90
:1029A0001BD1FB68DB8E9BB2002B16D07B6A012B00
:1029B00013D1FB681B6B1A88FB681B68DA60FB6825
:1029C0001B6B9A1CFB681A63FB68DB8E9BB2013B96
:1029D0009AB2FB68DA8600237B62FB681B689B68FF
:1029E00003F00103012B19D1FB68DB8F9BB2002B95
:1029F00014D0FB681B68DA68FB689B6B92B21A8084
:102A0000FB689B6B9A1CFB689A63FB68DB8F9BB22D
:102A1000013B9AB2FB68DA8701237B62FEF76EFE08
:102A200002463B6AD31A3A6B9A420DD83B6BB3F11C
:102A3000FF3F09D0FB68012283F85120FB68002288
:102A400083F850200323BCE0FB68DB8E9BB2002B95
:102A5000A0D1FB68DB8F9BB2002B9BD182E0FB688F
:102A60005B68002B02D0FB8A012B71D1FB681A6BCB
:102A7000FB681B680C3312781A70FB681B6B5A1CBE
:102A8000FB681A63FB68DB8E9BB2013B9AB2FB6862
:102A9000DA865DE0FB681B689B6803F00203022B8B
:102AA0001CD1FB68DB8E9BB2002B17D07B6A012BFD
:102AB00014D1FB681A6BFB681B680C3312781A7010
:102AC000FB681B6B5A1CFB681A63FB68DB8E9BB2AE
:102AD000013B9AB2FB68DA8600237B62FB681B68C5
:102AE0009B6803F00103012B19D1FB68DB8F9BB2BC
:102AF000002B14D0FB681B68DA68FB689B6BD2B2B2
:102B00001A70FB689B6B5A1CFB689A63FB68DB8F2F
:102B10009BB2013B9AB2FB68DA8701237B62FEF726
:102B2000EDFD02463B6AD31A3A6B9A4203D83B6BDF
:102B3000B3F1FF3F02D13B6B002B09D1FB680122AF
:102B400083F85120FB68002283F85020032338E0EB
:102B5000FB68DB8E9BB2002B9CD1FB68DB8F9BB2AA
:102B6000002B97D13A6A396BF86800F0C3F8034636
:102B7000002B08D0FB6820225A65FB68002283F8EE
:102B8000502001231DE0FB689B68002B0AD1002325
:102B90003B61FB681B68DB683B61FB681B689B68EB
:102BA0003B613B69FB68012283F85120FB680022EE
:102BB00083F85020FB685B6D002B01D0012300E0FF
:102BC000002318462837BD4680BD80B483B000AFCF
:102BD00078607B6893F85130DBB218460C37BD46FD
:102BE00080BC704780B588B000AFF860B9603B60CA
:102BF0001346FB71FEF782FD0246BB6A9B1A3A68D8
:102C00001344FB61FEF77AFDB861394B1B685B0129
:102C10001B0DFA6902FB03F37B6154E03B68B3F1DF
:102C2000FF3F50D0FEF76AFD0246BB69D31AFA692E
:102C30009A4202D9FB69002B3DD1FB681B685A6898
:102C4000FB681B6822F0E0025A60FB685B68B3F522
:102C5000827F11D1FB689B68B3F5004F04D0FB68FD
:102C60009B68B3F5806F07D1FB681B681A68FB6827
:102C70001B6822F040021A60FB689B6AB3F5005F94
:102C80000FD1FB681B681A68FB681B6822F40052AE
:102C90001A60FB681B681A68FB681B6842F40052E4
:102CA0001A60FB68012283F85120FB68002283F838
:102CB0005020032317E07B69002B01D10023FB6127
:102CC0007B69013B7B61FB681B689A68BB681340AA
:102CD000BA689A420CBF01230023DBB21A46FB7983
:102CE0009A429BD1002318462037BD4680BD00BFC5
:102CF0000000002080B586B002AFF860B9607A604D
:102D00007B680093BB6801220221F868FFF76AFF25
:102D10000346002B07D0FB685B6D43F02002FB6885
:102D20005A65032313E07B680093BB68002280216F
:102D3000F868FFF757FF0346002B07D0FB685B6D71
:102D400043F02002FB685A65032300E00023184685
:102D50001037BD4680BD80B582B000AF78607B681B
:102D6000002B01D1012341E07B6893F83D30DBB2B9
:102D7000002B06D17B68002283F83C207868FEF7A0
:102D8000F3FB7B68022283F83D207B681A687B682E
:102D900004331946104600F08BF97B68012283F852
:102DA00046207B68012283F83E207B68012283F85D
:102DB0003F207B68012283F840207B68012283F852
:102DC00041207B68012283F842207B68012283F83E
:102DD00043207B68012283F844207B68012283F82A
:102DE00045207B68012283F83D20002318460837E0
:102DF000BD4680BD80B584B000AF786039603B6867
:102E0000002B09D17B6893F83E30DBB2012B14BF55
:102E100001230023DBB222E03B68042B09D17B684D
:102E200093F83F30DBB2012B14BF01230023DBB248
:102E300015E03B68082B09D17B6893F84030DBB282
:102E4000012B14BF01230023DBB208E07B6893F859
:102E50004130DBB2012B14BF01230023DBB2002B76
:102E600001D0012359E03B68002B04D17B6802228A
:102E700083F83E2013E03B68042B04D17B680222D8
:102E800083F83F200BE03B68082B04D17B680222CB
:102E900083F8402003E07B68022283F841207B68AE
:102EA0001B6801223968184600F0EEFA7B681B683F
:102EB0001C4A934207D17B681B685A6C7B681B686D
:102EC00042F400425A647B681B68164A934209D058
:102ED0007B681B68B3F1804F04D07B681B68124A83
:102EE000934211D17B681B689B6803F00703FB606A
:102EF000FB68062B10D07B681B681A687B681B6810
:102F000042F001021A6007E07B681B681A687B6860
:102F10001B6842F001021A60002318461037BD46B4
:102F200080BD00BF002C01400004004080B586B089
:102F300000AFF860B9607A600023FB75FB6893F816
:102F40003C30012B01D10223AEE0FB68012283F863
:102F50003C207B680C2B00F29F8001A252F823F0EA
:102F6000952F000899300008993000089930000822
:102F7000D52F0008993000089930000899300008D2
:102F8000173000089930000899300008993000087F
:102F900057300008FB681B68B968184600F0ECF869
:102FA000FB681B689A69FB681B6842F008029A611B
:102FB000FB681B689A69FB681B6822F004029A612F
:102FC000FB681B689969BB681A69FB681B680A4340
:102FD0009A6164E0FB681B68B968184600F032F932
:102FE000FB681B689A69FB681B6842F400629A617F
:102FF000FB681B689A69FB681B6822F480629A610F
:10300000FB681B689969BB681B691A02FB681B682F
:103010000A439A6143E0FB681B68B968184600F0F0
:103020007BF9FB681B68DA69FB681B6842F00802E1
:10303000DA61FB681B68DA69FB681B6822F004022E
:10304000DA61FB681B68D969BB681A69FB681B6891
:103050000A43DA6123E0FB681B68B968184600F090
:10306000C5F9FB681B68DA69FB681B6842F40062FB
:10307000DA61FB681B68DA69FB681B6822F480620E
:10308000DA61FB681B68D969BB681B691A02FB68B7
:103090001B680A43DA6102E00123FB7500BFFB688D
:1030A000002283F83C20FB7D18461837BD4680BDC2
:1030B00080B485B000AF786039607B681B68FB60C6
:1030C0007B682B4A934207D07B68B3F1804F03D0D3
:1030D0007B68284A934208D1FB6823F07003FB60A9
:1030E0003B685B68FA681343FB607B68204A934245
:1030F00007D07B68B3F1804F03D07B681D4A9342B1
:1031000008D1FB6823F44073FB603B68DB68FA6816
:103110001343FB60FB6823F080023B685B69134349
:10312000FB607B68FA681A603B689A687B68DA62C1
:103130003B681A687B689A627B680D4A934203D1A8
:103140003B681A697B681A637B6801225A617B6855
:103150001B6903F00103002B05D07B681B6923F07A
:1031600001027B681A6100BF1437BD4680BC7047FE
:10317000002C01400004004080B487B000AF7860AC
:1031800039607B681B6A7B617B681B6A23F00102E4
:103190007B681A627B685B683B617B689B69FB604C
:1031A000FB6823F07003FB60FB6823F00303FB6004
:1031B0003B681B68FA681343FB607B6923F00203DA
:1031C0007B613B689B687A6913437B617B681C4A1F
:1031D00093420CD17B6923F008037B613B68DB6879
:1031E0007A6913437B617B6923F004037B617B680D
:1031F000134A934211D13B6923F480733B613B69CD
:1032000023F400733B613B685B693A6913433B619C
:103210003B689B693A6913433B617B683A695A6032
:103220007B68FA689A613B685A687B685A637B6876
:103230007A691A6200BF1C37BD4680BC704700BF68
:10324000002C014080B487B000AF786039607B68A3
:103250001B6A7B617B681B6A23F010027B681A6221
:103260007B685B683B617B689B69FB60FB6823F460
:10327000E043FB60FB6823F44073FB603B681B6822
:103280001B02FA681343FB607B6923F020037B6118
:103290003B689B681B017A6913437B617B681D4A0D
:1032A00093420DD17B6923F080037B613B68DB682F
:1032B0001B017A6913437B617B6923F040037B61C7
:1032C0007B68144A934213D13B6923F480633B61CA
:1032D0003B6923F400633B613B685B699B003A698F
:1032E00013433B613B689B699B003A6913433B6115
:1032F0007B683A695A607B68FA689A613B685A68E9
:103300007B689A637B687A691A6200BF1C37BD4686
:1033100080BC7047002C014080B487B000AF78605B
:1033200039607B681B6A7B617B681B6A23F480724F
:103330007B681A627B685B683B617B68DB69FB606A
:10334000FB6823F07003FB60FB6823F00303FB6062
:103350003B681B68FA681343FB607B6923F40073C6
:103360007B613B689B681B027A6913437B617B68C6
:103370001D4A93420DD17B6923F400637B613B6856
:10338000DB681B027A6913437B617B6923F48063EA
:103390007B617B68144A934213D13B6923F48053C9
:1033A0003B613B6923F400533B613B685B691B0154
:1033B0003A6913433B613B689B691B013A691343BC
:1033C0003B617B683A695A607B68FA68DA613B68FE
:1033D0005A687B68DA637B687A691A6200BF1C37B7
:1033E000BD4680BC704700BF002C014080B487B050
:1033F00000AF786039607B681B6A3B617B681B6A41
:1034000023F480527B681A627B685B687B617B680F
:10341000DB69FB60FB6823F4E043FB60FB6823F49B
:103420004073FB603B681B681B02FA681343FB6038
:103430003B6923F400533B613B689B681B033A697B
:1034400013433B617B680F4A934209D17B6923F4A4
:1034500080437B613B685B699B017A6913437B61B5
:103460007B687A695A607B68FA68DA613B685A68F7
:103470007B681A647B683A691A6200BF1C37BD46D4
:1034800080BC7047002C014080B487B000AFF8606A
:10349000B9607A60BB6803F01F03012202FA03F3EC
:1034A0007B61FB681A6A7B69DB431A40FB681A621E
:1034B000FB681A6ABB6803F01F03796801FA03F31B
:1034C0001A43FB681A6200BF1C37BD4680BC7047B8
:1034D00080B485B000AF786039607B6893F83C3089
:1034E000012B01D1022341E07B68012283F83C20BB
:1034F0007B68022283F83D207B681B685B68FB6069
:103500007B681B689B68BB60FB6823F07003FB60F3
:103510003B681B68FA681343FB607B681B68FA68AA
:103520005A607B681B68144A934209D07B681B6809
:10353000B3F1804F04D07B681B68104A93420CD1D2
:10354000BB6823F08003BB603B685B68BA681343C9
:10355000BB607B681B68BA689A607B68012283F84D
:103560003D207B68002283F83C2000231846143756
:10357000BD4680BC704700BF002C014000040040E5
:1035800003460244934200D1704703F8011BF9E758
:1035900070B500260C4D0D4C641BA410A64209D139
:1035A00000F028F800260A4D0A4C641BA410A6421D
:1035B00005D170BD55F8043B98470136EEE755F844
:1035C000043B98470136F2E75836000858360008A1
:1035D000583600085C3600080A44914200F1FF3377
:1035E00000D1704710B511F8014B914203F8014F1B
:1035F000F9D110BDF8B500BFF8BC08BC9E467047B5
:0C360000F8B500BFF8BC08BC9E4670473F
:10360C00FFFCF9F6060708090A0B0C00000102037F
:10361C00040506070809000001020304010000006C
:10362C000000000000000000010203040607080966
:10363C0002030405060708090A0B0C0D0E0F1010E7
:04364C000102000077
:0836500030CBFF7F01000000F8
:043658003501000830
:04365C001101000850
:0C36600000127A001000000001000000C1
:0400000508001601D8
:00000001FF
